{
  "_format": "hh-sol-artifact-1",
  "contractName": "MasterChef",
  "sourceName": "contracts/MasterChef.sol",
  "abi": [
    {
      "inputs": [
        {
          "internalType": "contract SushiToken",
          "name": "_sushi",
          "type": "address"
        },
        {
          "internalType": "address",
          "name": "_devaddr",
          "type": "address"
        },
        {
          "internalType": "uint256",
          "name": "_sushiPerBlock",
          "type": "uint256"
        },
        {
          "internalType": "uint256",
          "name": "_startBlock",
          "type": "uint256"
        },
        {
          "internalType": "uint256",
          "name": "_bonusEndBlock",
          "type": "uint256"
        }
      ],
      "stateMutability": "nonpayable",
      "type": "constructor"
    },
    {
      "anonymous": false,
      "inputs": [
        {
          "indexed": true,
          "internalType": "address",
          "name": "user",
          "type": "address"
        },
        {
          "indexed": true,
          "internalType": "uint256",
          "name": "pid",
          "type": "uint256"
        },
        {
          "indexed": false,
          "internalType": "uint256",
          "name": "amount",
          "type": "uint256"
        }
      ],
      "name": "Deposit",
      "type": "event"
    },
    {
      "anonymous": false,
      "inputs": [
        {
          "indexed": true,
          "internalType": "address",
          "name": "user",
          "type": "address"
        },
        {
          "indexed": true,
          "internalType": "uint256",
          "name": "pid",
          "type": "uint256"
        },
        {
          "indexed": false,
          "internalType": "uint256",
          "name": "amount",
          "type": "uint256"
        }
      ],
      "name": "EmergencyWithdraw",
      "type": "event"
    },
    {
      "anonymous": false,
      "inputs": [
        {
          "indexed": true,
          "internalType": "address",
          "name": "previousOwner",
          "type": "address"
        },
        {
          "indexed": true,
          "internalType": "address",
          "name": "newOwner",
          "type": "address"
        }
      ],
      "name": "OwnershipTransferred",
      "type": "event"
    },
    {
      "anonymous": false,
      "inputs": [
        {
          "indexed": true,
          "internalType": "address",
          "name": "user",
          "type": "address"
        },
        {
          "indexed": true,
          "internalType": "uint256",
          "name": "pid",
          "type": "uint256"
        },
        {
          "indexed": false,
          "internalType": "uint256",
          "name": "amount",
          "type": "uint256"
        }
      ],
      "name": "Withdraw",
      "type": "event"
    },
    {
      "inputs": [],
      "name": "BONUS_MULTIPLIER",
      "outputs": [
        {
          "internalType": "uint256",
          "name": "",
          "type": "uint256"
        }
      ],
      "stateMutability": "view",
      "type": "function"
    },
    {
      "inputs": [
        {
          "internalType": "uint256",
          "name": "_allocPoint",
          "type": "uint256"
        },
        {
          "internalType": "contract IERC20",
          "name": "_lpToken",
          "type": "address"
        },
        {
          "internalType": "bool",
          "name": "_withUpdate",
          "type": "bool"
        }
      ],
      "name": "add",
      "outputs": [],
      "stateMutability": "nonpayable",
      "type": "function"
    },
    {
      "inputs": [],
      "name": "bonusEndBlock",
      "outputs": [
        {
          "internalType": "uint256",
          "name": "",
          "type": "uint256"
        }
      ],
      "stateMutability": "view",
      "type": "function"
    },
    {
      "inputs": [
        {
          "internalType": "uint256",
          "name": "_pid",
          "type": "uint256"
        },
        {
          "internalType": "uint256",
          "name": "_amount",
          "type": "uint256"
        }
      ],
      "name": "deposit",
      "outputs": [],
      "stateMutability": "nonpayable",
      "type": "function"
    },
    {
      "inputs": [
        {
          "internalType": "address",
          "name": "_devaddr",
          "type": "address"
        }
      ],
      "name": "dev",
      "outputs": [],
      "stateMutability": "nonpayable",
      "type": "function"
    },
    {
      "inputs": [],
      "name": "devaddr",
      "outputs": [
        {
          "internalType": "address",
          "name": "",
          "type": "address"
        }
      ],
      "stateMutability": "view",
      "type": "function"
    },
    {
      "inputs": [
        {
          "internalType": "uint256",
          "name": "_pid",
          "type": "uint256"
        }
      ],
      "name": "emergencyWithdraw",
      "outputs": [],
      "stateMutability": "nonpayable",
      "type": "function"
    },
    {
      "inputs": [
        {
          "internalType": "uint256",
          "name": "_from",
          "type": "uint256"
        },
        {
          "internalType": "uint256",
          "name": "_to",
          "type": "uint256"
        }
      ],
      "name": "getMultiplier",
      "outputs": [
        {
          "internalType": "uint256",
          "name": "",
          "type": "uint256"
        }
      ],
      "stateMutability": "view",
      "type": "function"
    },
    {
      "inputs": [],
      "name": "massUpdatePools",
      "outputs": [],
      "stateMutability": "nonpayable",
      "type": "function"
    },
    {
      "inputs": [
        {
          "internalType": "uint256",
          "name": "_pid",
          "type": "uint256"
        }
      ],
      "name": "migrate",
      "outputs": [],
      "stateMutability": "nonpayable",
      "type": "function"
    },
    {
      "inputs": [],
      "name": "migrator",
      "outputs": [
        {
          "internalType": "contract IMigratorChef",
          "name": "",
          "type": "address"
        }
      ],
      "stateMutability": "view",
      "type": "function"
    },
    {
      "inputs": [],
      "name": "owner",
      "outputs": [
        {
          "internalType": "address",
          "name": "",
          "type": "address"
        }
      ],
      "stateMutability": "view",
      "type": "function"
    },
    {
      "inputs": [
        {
          "internalType": "uint256",
          "name": "_pid",
          "type": "uint256"
        },
        {
          "internalType": "address",
          "name": "_user",
          "type": "address"
        }
      ],
      "name": "pendingSushi",
      "outputs": [
        {
          "internalType": "uint256",
          "name": "",
          "type": "uint256"
        }
      ],
      "stateMutability": "view",
      "type": "function"
    },
    {
      "inputs": [
        {
          "internalType": "uint256",
          "name": "",
          "type": "uint256"
        }
      ],
      "name": "poolInfo",
      "outputs": [
        {
          "internalType": "contract IERC20",
          "name": "lpToken",
          "type": "address"
        },
        {
          "internalType": "uint256",
          "name": "allocPoint",
          "type": "uint256"
        },
        {
          "internalType": "uint256",
          "name": "lastRewardBlock",
          "type": "uint256"
        },
        {
          "internalType": "uint256",
          "name": "accSushiPerShare",
          "type": "uint256"
        }
      ],
      "stateMutability": "view",
      "type": "function"
    },
    {
      "inputs": [],
      "name": "poolLength",
      "outputs": [
        {
          "internalType": "uint256",
          "name": "",
          "type": "uint256"
        }
      ],
      "stateMutability": "view",
      "type": "function"
    },
    {
      "inputs": [],
      "name": "renounceOwnership",
      "outputs": [],
      "stateMutability": "nonpayable",
      "type": "function"
    },
    {
      "inputs": [
        {
          "internalType": "uint256",
          "name": "_pid",
          "type": "uint256"
        },
        {
          "internalType": "uint256",
          "name": "_allocPoint",
          "type": "uint256"
        },
        {
          "internalType": "bool",
          "name": "_withUpdate",
          "type": "bool"
        }
      ],
      "name": "set",
      "outputs": [],
      "stateMutability": "nonpayable",
      "type": "function"
    },
    {
      "inputs": [
        {
          "internalType": "contract IMigratorChef",
          "name": "_migrator",
          "type": "address"
        }
      ],
      "name": "setMigrator",
      "outputs": [],
      "stateMutability": "nonpayable",
      "type": "function"
    },
    {
      "inputs": [],
      "name": "startBlock",
      "outputs": [
        {
          "internalType": "uint256",
          "name": "",
          "type": "uint256"
        }
      ],
      "stateMutability": "view",
      "type": "function"
    },
    {
      "inputs": [],
      "name": "sushi",
      "outputs": [
        {
          "internalType": "contract SushiToken",
          "name": "",
          "type": "address"
        }
      ],
      "stateMutability": "view",
      "type": "function"
    },
    {
      "inputs": [],
      "name": "sushiPerBlock",
      "outputs": [
        {
          "internalType": "uint256",
          "name": "",
          "type": "uint256"
        }
      ],
      "stateMutability": "view",
      "type": "function"
    },
    {
      "inputs": [],
      "name": "totalAllocPoint",
      "outputs": [
        {
          "internalType": "uint256",
          "name": "",
          "type": "uint256"
        }
      ],
      "stateMutability": "view",
      "type": "function"
    },
    {
      "inputs": [
        {
          "internalType": "address",
          "name": "newOwner",
          "type": "address"
        }
      ],
      "name": "transferOwnership",
      "outputs": [],
      "stateMutability": "nonpayable",
      "type": "function"
    },
    {
      "inputs": [
        {
          "internalType": "uint256",
          "name": "_pid",
          "type": "uint256"
        }
      ],
      "name": "updatePool",
      "outputs": [],
      "stateMutability": "nonpayable",
      "type": "function"
    },
    {
      "inputs": [
        {
          "internalType": "uint256",
          "name": "",
          "type": "uint256"
        },
        {
          "internalType": "address",
          "name": "",
          "type": "address"
        }
      ],
      "name": "userInfo",
      "outputs": [
        {
          "internalType": "uint256",
          "name": "amount",
          "type": "uint256"
        },
        {
          "internalType": "uint256",
          "name": "rewardDebt",
          "type": "uint256"
        }
      ],
      "stateMutability": "view",
      "type": "function"
    },
    {
      "inputs": [
        {
          "internalType": "uint256",
          "name": "_pid",
          "type": "uint256"
        },
        {
          "internalType": "uint256",
          "name": "_amount",
          "type": "uint256"
        }
      ],
      "name": "withdraw",
      "outputs": [],
      "stateMutability": "nonpayable",
      "type": "function"
    }
  ],
  "bytecode": "0x608060405260006008553480156200001657600080fd5b5060405162001d5538038062001d558339810160408190526200003991620000e0565b6200004d620000476200008c565b62000090565b600180546001600160a01b039687166001600160a01b031991821617909155600280549590961694169390931790935560045560035560095562000150565b3390565b600080546001600160a01b038381166001600160a01b0319831681178455604051919092169283917f8be0079c531659141344cd1fd0a4f28419497f9722a3daafe3b4186f6b6457e09190a35050565b600080600080600060a08688031215620000f8578081fd5b8551620001058162000137565b6020870151909550620001188162000137565b6040870151606088015160809098015196999198509695945092505050565b6001600160a01b03811681146200014d57600080fd5b50565b611bf580620001606000396000f3fe608060405234801561001057600080fd5b506004361061018e5760003560e01c8063630b5ba1116100de5780638da5cb5b11610097578063b0bcf42a11610071578063b0bcf42a1461030a578063d49e77cd14610312578063e2bbb1581461031a578063f2fde38b1461032d5761018e565b80638da5cb5b146102ce5780638dbb1e3a146102d657806393f1a40b146102e95761018e565b8063630b5ba11461028857806364482f7914610290578063715018a6146102a35780637cd07e47146102ab5780638aa28550146102b35780638d88a90e146102bb5761018e565b80631eaaa0451161014b578063454b060811610125578063454b06081461024757806348cd4cb11461025a57806351eb05a6146102625780635312ea8e146102755761018e565b80631eaaa0451461020c57806323cf311814610221578063441a3e70146102345761018e565b8063081e3eda146101935780630a087903146101b15780631526fe27146101c657806317caf6f1146101e9578063195426ec146101f15780631aed655314610204575b600080fd5b61019b610340565b6040516101a89190611aba565b60405180910390f35b6101b9610346565b6040516101a891906117bb565b6101d96101d43660046116b1565b610355565b6040516101a89493929190611826565b61019b610399565b61019b6101ff3660046116e1565b61039f565b61019b610531565b61021f61021a366004611710565b610537565b005b61021f61022f36600461165d565b6106a2565b61021f610242366004611751565b610703565b61021f6102553660046116b1565b61083f565b61019b610a78565b61021f6102703660046116b1565b610a7e565b61021f6102833660046116b1565b610ca7565b61021f610d5a565b61021f61029e366004611772565b610d85565b61021f610e65565b6101b9610eb0565b61019b610ebf565b61021f6102c936600461165d565b610ec4565b6101b9610f10565b61019b6102e4366004611751565b610f1f565b6102fc6102f73660046116e1565b610f85565b6040516101a8929190611ac3565b61019b610fa9565b6101b9610faf565b61021f610328366004611751565b610fbe565b61021f61033b36600461165d565b6110dc565b60065490565b6001546001600160a01b031681565b6006818154811061036557600080fd5b600091825260209091206004909102018054600182015460028301546003909301546001600160a01b039092169350919084565b60085481565b600080600684815481106103c357634e487b7160e01b600052603260045260246000fd5b600091825260208083208784526007825260408085206001600160a01b038981168752935280852060049485029092016003810154815492516370a0823160e01b815291975092959294929391909116916370a0823191610426913091016117bb565b60206040518083038186803b15801561043e57600080fd5b505afa158015610452573d6000803e3d6000fd5b505050506040513d601f19601f8201168201806040525081019061047691906116c9565b905083600201544311801561048a57508015155b156104f657600061049f856002015443610f1f565b905060006104d26008546104cc88600101546104c66004548761114a90919063ffffffff16565b9061114a565b9061115d565b90506104f16104ea846104cc8464e8d4a5100061114a565b8590611169565b935050505b610524836001015461051e64e8d4a510006104cc86886000015461114a90919063ffffffff16565b90611175565b9450505050505b92915050565b60035481565b61053f611181565b6001600160a01b0316610550610f10565b6001600160a01b03161461057f5760405162461bcd60e51b81526004016105769061192e565b60405180910390fd5b801561058d5761058d610d5a565b600060095443116105a0576009546105a2565b435b6008549091506105b29085611169565b600855604080516080810182526001600160a01b0394851681526020810195865290810191825260006060820181815260068054600181018255925291517ff652222313e28459528d920b65115c16c04f3efc82aaedc97be59f3f377c0d3f600490920291820180546001600160a01b031916919096161790945593517ff652222313e28459528d920b65115c16c04f3efc82aaedc97be59f3f377c0d40840155517ff652222313e28459528d920b65115c16c04f3efc82aaedc97be59f3f377c0d418301555090517ff652222313e28459528d920b65115c16c04f3efc82aaedc97be59f3f377c0d4290910155565b6106aa611181565b6001600160a01b03166106bb610f10565b6001600160a01b0316146106e15760405162461bcd60e51b81526004016105769061192e565b600580546001600160a01b0319166001600160a01b0392909216919091179055565b60006006838154811061072657634e487b7160e01b600052603260045260246000fd5b60009182526020808320868452600782526040808520338652909252922080546004909202909201925083111561076f5760405162461bcd60e51b81526004016105769061199a565b61077884610a7e565b60006107a6826001015461051e64e8d4a510006104cc8760030154876000015461114a90919063ffffffff16565b90506107b23382611185565b81546107be9085611175565b80835560038401546107db9164e8d4a51000916104cc919061114a565b600183015582546107f6906001600160a01b03163386611325565b84336001600160a01b03167ff279e6a1f5e320cca91135676d9cb6e44ca8a08c0b88342bcdb1144f6511b568866040516108309190611aba565b60405180910390a35050505050565b6005546001600160a01b03166108675760405162461bcd60e51b815260040161057690611a8c565b60006006828154811061088a57634e487b7160e01b600052603260045260246000fd5b60009182526020822060049182020180546040516370a0823160e01b81529194506001600160a01b0316929183916370a08231916108ca913091016117bb565b60206040518083038186803b1580156108e257600080fd5b505afa1580156108f6573d6000803e3d6000fd5b505050506040513d601f19601f8201168201806040525081019061091a91906116c9565b600554909150610937906001600160a01b0384811691168361137b565b60055460405163ce5494bb60e01b81526000916001600160a01b03169063ce5494bb906109689086906004016117bb565b602060405180830381600087803b15801561098257600080fd5b505af1158015610996573d6000803e3d6000fd5b505050506040513d601f19601f820116820180604052508101906109ba9190611695565b6040516370a0823160e01b81529091506001600160a01b038216906370a08231906109e99030906004016117bb565b60206040518083038186803b158015610a0157600080fd5b505afa158015610a15573d6000803e3d6000fd5b505050506040513d601f19601f82011682018060405250810190610a3991906116c9565b8214610a575760405162461bcd60e51b815260040161057690611a10565b83546001600160a01b0319166001600160a01b039190911617909255505050565b60095481565b600060068281548110610aa157634e487b7160e01b600052603260045260246000fd5b9060005260206000209060040201905080600201544311610ac25750610ca4565b80546040516370a0823160e01b81526000916001600160a01b0316906370a0823190610af29030906004016117bb565b60206040518083038186803b158015610b0a57600080fd5b505afa158015610b1e573d6000803e3d6000fd5b505050506040513d601f19601f82011682018060405250810190610b4291906116c9565b905080610b56575043600290910155610ca4565b6000610b66836002015443610f1f565b90506000610b8d6008546104cc86600101546104c66004548761114a90919063ffffffff16565b6001546002549192506001600160a01b03908116916340c10f199116610bb484600a61115d565b6040518363ffffffff1660e01b8152600401610bd192919061180d565b600060405180830381600087803b158015610beb57600080fd5b505af1158015610bff573d6000803e3d6000fd5b50506001546040516340c10f1960e01b81526001600160a01b0390911692506340c10f199150610c35903090859060040161180d565b600060405180830381600087803b158015610c4f57600080fd5b505af1158015610c63573d6000803e3d6000fd5b50505050610c91610c86846104cc64e8d4a510008561114a90919063ffffffff16565b600386015490611169565b6003850155505043600290920191909155505b50565b600060068281548110610cca57634e487b7160e01b600052603260045260246000fd5b60009182526020808320858452600782526040808520338087529352909320805460049093029093018054909450610d0f926001600160a01b03919091169190611325565b8054604051849133917fbb757047c2b5f3974fe26b7c10f732e7bce710b0952a71082702781e62ae059591610d4391611aba565b60405180910390a360008082556001909101555050565b60065460005b81811015610d8157610d7181610a7e565b610d7a81611b6b565b9050610d60565b5050565b610d8d611181565b6001600160a01b0316610d9e610f10565b6001600160a01b031614610dc45760405162461bcd60e51b81526004016105769061192e565b8015610dd257610dd2610d5a565b610e2382610e1d60068681548110610dfa57634e487b7160e01b600052603260045260246000fd5b90600052602060002090600402016001015460085461117590919063ffffffff16565b90611169565b6008819055508160068481548110610e4b57634e487b7160e01b600052603260045260246000fd5b906000526020600020906004020160010181905550505050565b610e6d611181565b6001600160a01b0316610e7e610f10565b6001600160a01b031614610ea45760405162461bcd60e51b81526004016105769061192e565b610eae600061143e565b565b6005546001600160a01b031681565b600a81565b6002546001600160a01b03163314610eee5760405162461bcd60e51b81526004016105769061190b565b600280546001600160a01b0319166001600160a01b0392909216919091179055565b6000546001600160a01b031690565b60006003548211610f4057610f39600a6104c68486611175565b905061052b565b6003548310610f5357610f398284611175565b610f39610f6b6003548461117590919063ffffffff16565b610e1d600a6104c68760035461117590919063ffffffff16565b60076020908152600092835260408084209091529082529020805460019091015482565b60045481565b6002546001600160a01b031681565b600060068381548110610fe157634e487b7160e01b600052603260045260246000fd5b6000918252602080832086845260078252604080852033865290925292206004909102909101915061101284610a7e565b805415611055576000611047826001015461051e64e8d4a510006104cc8760030154876000015461114a90919063ffffffff16565b90506110533382611185565b505b815461106c906001600160a01b031633308661148e565b80546110789084611169565b80825560038301546110959164e8d4a51000916104cc919061114a565b6001820155604051849033907f90890809c654f11d6e72a28fa60149770a0d11ec6c92319d6ceb2bb0a4ea1a15906110ce908790611aba565b60405180910390a350505050565b6110e4611181565b6001600160a01b03166110f5610f10565b6001600160a01b03161461111b5760405162461bcd60e51b81526004016105769061192e565b6001600160a01b0381166111415760405162461bcd60e51b81526004016105769061187f565b610ca48161143e565b60006111568284611b09565b9392505050565b60006111568284611ae9565b60006111568284611ad1565b60006111568284611b28565b3390565b6001546040516370a0823160e01b81526000916001600160a01b0316906370a08231906111b69030906004016117bb565b60206040518083038186803b1580156111ce57600080fd5b505afa1580156111e2573d6000803e3d6000fd5b505050506040513d601f19601f8201168201806040525081019061120691906116c9565b90508082111561129a5760015460405163a9059cbb60e01b81526001600160a01b039091169063a9059cbb90611242908690859060040161180d565b602060405180830381600087803b15801561125c57600080fd5b505af1158015611270573d6000803e3d6000fd5b505050506040513d601f19601f820116820180604052508101906112949190611679565b50611320565b60015460405163a9059cbb60e01b81526001600160a01b039091169063a9059cbb906112cc908690869060040161180d565b602060405180830381600087803b1580156112e657600080fd5b505af11580156112fa573d6000803e3d6000fd5b505050506040513d601f19601f8201168201806040525081019061131e9190611679565b505b505050565b6113208363a9059cbb60e01b848460405160240161134492919061180d565b60408051601f198184030181529190526020810180516001600160e01b03166001600160e01b0319909316929092179091526114af565b8015806114035750604051636eb1769f60e11b81526001600160a01b0384169063dd62ed3e906113b190309086906004016117cf565b60206040518083038186803b1580156113c957600080fd5b505afa1580156113dd573d6000803e3d6000fd5b505050506040513d601f19601f8201168201806040525081019061140191906116c9565b155b61141f5760405162461bcd60e51b815260040161057690611a36565b6113208363095ea7b360e01b848460405160240161134492919061180d565b600080546001600160a01b038381166001600160a01b0319831681178455604051919092169283917f8be0079c531659141344cd1fd0a4f28419497f9722a3daafe3b4186f6b6457e09190a35050565b61131e846323b872dd60e01b858585604051602401611344939291906117e9565b6000611504826040518060400160405280602081526020017f5361666545524332303a206c6f772d6c6576656c2063616c6c206661696c6564815250856001600160a01b031661153e9092919063ffffffff16565b80519091501561132057808060200190518101906115229190611679565b6113205760405162461bcd60e51b8152600401610576906119c6565b606061154d8484600085611555565b949350505050565b6060824710156115775760405162461bcd60e51b8152600401610576906118c5565b61158085611615565b61159c5760405162461bcd60e51b815260040161057690611963565b600080866001600160a01b031685876040516115b8919061179f565b60006040518083038185875af1925050503d80600081146115f5576040519150601f19603f3d011682016040523d82523d6000602084013e6115fa565b606091505b509150915061160a828286611624565b979650505050505050565b6001600160a01b03163b151590565b60608315611633575081611156565b8251156116435782518084602001fd5b8160405162461bcd60e51b8152600401610576919061184c565b60006020828403121561166e578081fd5b813561115681611b9c565b60006020828403121561168a578081fd5b815161115681611bb1565b6000602082840312156116a6578081fd5b815161115681611b9c565b6000602082840312156116c2578081fd5b5035919050565b6000602082840312156116da578081fd5b5051919050565b600080604083850312156116f3578081fd5b82359150602083013561170581611b9c565b809150509250929050565b600080600060608486031215611724578081fd5b83359250602084013561173681611b9c565b9150604084013561174681611bb1565b809150509250925092565b60008060408385031215611763578182fd5b50508035926020909101359150565b600080600060608486031215611786578283fd5b8335925060208401359150604084013561174681611bb1565b600082516117b1818460208701611b3f565b9190910192915050565b6001600160a01b0391909116815260200190565b6001600160a01b0392831681529116602082015260400190565b6001600160a01b039384168152919092166020820152604081019190915260600190565b6001600160a01b03929092168252602082015260400190565b6001600160a01b0394909416845260208401929092526040830152606082015260800190565b600060208252825180602084015261186b816040850160208701611b3f565b601f01601f19169190910160400192915050565b60208082526026908201527f4f776e61626c653a206e6577206f776e657220697320746865207a65726f206160408201526564647265737360d01b606082015260800190565b60208082526026908201527f416464726573733a20696e73756666696369656e742062616c616e636520666f6040820152651c8818d85b1b60d21b606082015260800190565b6020808252600990820152686465763a207775743f60b81b604082015260600190565b6020808252818101527f4f776e61626c653a2063616c6c6572206973206e6f7420746865206f776e6572604082015260600190565b6020808252601d908201527f416464726573733a2063616c6c20746f206e6f6e2d636f6e7472616374000000604082015260600190565b6020808252601290820152711dda5d1a191c985dce881b9bdd0819dbdbd960721b604082015260600190565b6020808252602a908201527f5361666545524332303a204552433230206f7065726174696f6e20646964206e6040820152691bdd081cdd58d8d9595960b21b606082015260800190565b6020808252600c908201526b1b5a59dc985d194e8818985960a21b604082015260600190565b60208082526036908201527f5361666545524332303a20617070726f76652066726f6d206e6f6e2d7a65726f60408201527520746f206e6f6e2d7a65726f20616c6c6f77616e636560501b606082015260800190565b60208082526014908201527336b4b3b930ba329d1037379036b4b3b930ba37b960611b604082015260600190565b90815260200190565b918252602082015260400190565b60008219821115611ae457611ae4611b86565b500190565b600082611b0457634e487b7160e01b81526012600452602481fd5b500490565b6000816000190483118215151615611b2357611b23611b86565b500290565b600082821015611b3a57611b3a611b86565b500390565b60005b83811015611b5a578181015183820152602001611b42565b8381111561131e5750506000910152565b6000600019821415611b7f57611b7f611b86565b5060010190565b634e487b7160e01b600052601160045260246000fd5b6001600160a01b0381168114610ca457600080fd5b8015158114610ca457600080fdfea264697066735822122037e669910bd1827e8ac6e7cd682626a07fccc347e0d33aa9a69111d5addecb8364736f6c63430008010033",
  "linkReferences": {},
  "deployedLinkReferences": {}
}