{
  "_format": "hh-sol-artifact-1",
  "contractName": "Vault",
  "sourceName": "contracts/Vault.sol",
  "abi": [
    {
      "inputs": [
        {
          "internalType": "address",
          "name": "",
          "type": "address"
        }
      ],
      "name": "balances",
      "outputs": [
        {
          "internalType": "uint256",
          "name": "",
          "type": "uint256"
        }
      ],
      "stateMutability": "view",
      "type": "function"
    },
    {
      "inputs": [
        {
          "internalType": "address",
          "name": "erc20Addr",
          "type": "address"
        },
        {
          "internalType": "uint256",
          "name": "amount",
          "type": "uint256"
        }
      ],
      "name": "deposite",
      "outputs": [],
      "stateMutability": "nonpayable",
      "type": "function"
    },
    {
      "inputs": [
        {
          "internalType": "address",
          "name": "addr",
          "type": "address"
        }
      ],
      "name": "getBalance",
      "outputs": [
        {
          "internalType": "uint256",
          "name": "",
          "type": "uint256"
        }
      ],
      "stateMutability": "view",
      "type": "function"
    },
    {
      "inputs": [
        {
          "internalType": "address",
          "name": "erc20Addr",
          "type": "address"
        },
        {
          "internalType": "uint256",
          "name": "amount",
          "type": "uint256"
        }
      ],
      "name": "withdraw",
      "outputs": [],
      "stateMutability": "nonpayable",
      "type": "function"
    }
  ],
  "bytecode": "0x608060405234801561001057600080fd5b50610859806100206000396000f3fe608060405234801561001057600080fd5b506004361061004c5760003560e01c806327e235e314610051578063880cfc2f14610081578063f3fef3a31461009d578063f8b2cb4f146100b9575b600080fd5b61006b60048036038101906100669190610461565b6100e9565b6040516100789190610636565b60405180910390f35b61009b6004803603810190610096919061048a565b610101565b005b6100b760048036038101906100b2919061048a565b61022e565b005b6100d360048036038101906100ce9190610461565b6103da565b6040516100e09190610636565b60405180910390f35b60006020528060005260406000206000915090505481565b60008273ffffffffffffffffffffffffffffffffffffffff166323b872dd3330856040518463ffffffff1660e01b815260040161014093929190610576565b602060405180830381600087803b15801561015a57600080fd5b505af115801561016e573d6000803e3d6000fd5b505050506040513d601f19601f8201168201806040525081019061019291906104c6565b9050806101d4576040517f08c379a00000000000000000000000000000000000000000000000000000000081526004016101cb906105f6565b60405180910390fd5b816000803373ffffffffffffffffffffffffffffffffffffffff1673ffffffffffffffffffffffffffffffffffffffff16815260200190815260200160002060008282546102229190610662565b92505081905550505050565b806000803373ffffffffffffffffffffffffffffffffffffffff1673ffffffffffffffffffffffffffffffffffffffff1681526020019081526020016000205410156102af576040517f08c379a00000000000000000000000000000000000000000000000000000000081526004016102a6906105d6565b60405180910390fd5b806000803373ffffffffffffffffffffffffffffffffffffffff1673ffffffffffffffffffffffffffffffffffffffff16815260200190815260200160002060008282546102fd91906106b8565b9250508190555060008273ffffffffffffffffffffffffffffffffffffffff1663a9059cbb33846040518363ffffffff1660e01b81526004016103419291906105ad565b602060405180830381600087803b15801561035b57600080fd5b505af115801561036f573d6000803e3d6000fd5b505050506040513d601f19601f8201168201806040525081019061039391906104c6565b9050806103d5576040517f08c379a00000000000000000000000000000000000000000000000000000000081526004016103cc90610616565b60405180910390fd5b505050565b60008060008373ffffffffffffffffffffffffffffffffffffffff1673ffffffffffffffffffffffffffffffffffffffff168152602001908152602001600020549050919050565b600081359050610431816107de565b92915050565b600081519050610446816107f5565b92915050565b60008135905061045b8161080c565b92915050565b60006020828403121561047357600080fd5b600061048184828501610422565b91505092915050565b6000806040838503121561049d57600080fd5b60006104ab85828601610422565b92505060206104bc8582860161044c565b9150509250929050565b6000602082840312156104d857600080fd5b60006104e684828501610437565b91505092915050565b6104f8816106ec565b82525050565b600061050b601683610651565b915061051682610763565b602082019050919050565b600061052e601683610651565b91506105398261078c565b602082019050919050565b6000610551601283610651565b915061055c826107b5565b602082019050919050565b6105708161072a565b82525050565b600060608201905061058b60008301866104ef565b61059860208301856104ef565b6105a56040830184610567565b949350505050565b60006040820190506105c260008301856104ef565b6105cf6020830184610567565b9392505050565b600060208201905081810360008301526105ef816104fe565b9050919050565b6000602082019050818103600083015261060f81610521565b9050919050565b6000602082019050818103600083015261062f81610544565b9050919050565b600060208201905061064b6000830184610567565b92915050565b600082825260208201905092915050565b600061066d8261072a565b91506106788361072a565b9250827fffffffffffffffffffffffffffffffffffffffffffffffffffffffffffffffff038211156106ad576106ac610734565b5b828201905092915050565b60006106c38261072a565b91506106ce8361072a565b9250828210156106e1576106e0610734565b5b828203905092915050565b60006106f78261070a565b9050919050565b60008115159050919050565b600073ffffffffffffffffffffffffffffffffffffffff82169050919050565b6000819050919050565b7f4e487b7100000000000000000000000000000000000000000000000000000000600052601160045260246000fd5b7f62616c616e636573206973206e6f7420656e6f75676800000000000000000000600082015250565b7f7472616e7366657246726f6d206973206661696c656400000000000000000000600082015250565b7f7472616e73666572206973206661696c65640000000000000000000000000000600082015250565b6107e7816106ec565b81146107f257600080fd5b50565b6107fe816106fe565b811461080957600080fd5b50565b6108158161072a565b811461082057600080fd5b5056fea26469706673582212203ce0e2918de99b8a1818e71c40dd8cb1ad1c8efcca205bc8ea1b0db1dd59548d64736f6c63430008030033",
  "linkReferences": {},
  "deployedLinkReferences": {}
}