{
  "_format": "hh-sol-artifact-1",
  "contractName": "MyTokenMarket",
  "sourceName": "contracts/MyTokenMarket.sol",
  "abi": [
    {
      "inputs": [
        {
          "internalType": "address",
          "name": "_tokenA",
          "type": "address"
        },
        {
          "internalType": "address",
          "name": "_tokenB",
          "type": "address"
        },
        {
          "internalType": "address",
          "name": "_router",
          "type": "address"
        },
        {
          "internalType": "address",
          "name": "_weth",
          "type": "address"
        },
        {
          "internalType": "contract MasterChef",
          "name": "_chef",
          "type": "address"
        },
        {
          "internalType": "uint256",
          "name": "_tokenB_pid",
          "type": "uint256"
        }
      ],
      "stateMutability": "nonpayable",
      "type": "constructor"
    },
    {
      "inputs": [
        {
          "internalType": "uint256",
          "name": "tokenAAmount",
          "type": "uint256"
        },
        {
          "internalType": "uint256",
          "name": "tokenBAmount",
          "type": "uint256"
        }
      ],
      "name": "AddLiquidityByTokenA_TokenB",
      "outputs": [
        {
          "internalType": "uint256",
          "name": "amountA",
          "type": "uint256"
        },
        {
          "internalType": "uint256",
          "name": "amountB",
          "type": "uint256"
        },
        {
          "internalType": "uint256",
          "name": "liquidity",
          "type": "uint256"
        }
      ],
      "stateMutability": "payable",
      "type": "function"
    },
    {
      "inputs": [
        {
          "internalType": "uint256",
          "name": "tokenAmount",
          "type": "uint256"
        }
      ],
      "name": "AddLiquidityByToken_ETH",
      "outputs": [
        {
          "internalType": "uint256",
          "name": "amountToken",
          "type": "uint256"
        },
        {
          "internalType": "uint256",
          "name": "amountETH",
          "type": "uint256"
        },
        {
          "internalType": "uint256",
          "name": "liquidity",
          "type": "uint256"
        }
      ],
      "stateMutability": "payable",
      "type": "function"
    },
    {
      "inputs": [],
      "name": "TokenA",
      "outputs": [
        {
          "internalType": "address",
          "name": "",
          "type": "address"
        }
      ],
      "stateMutability": "view",
      "type": "function"
    },
    {
      "inputs": [],
      "name": "TokenB",
      "outputs": [
        {
          "internalType": "address",
          "name": "",
          "type": "address"
        }
      ],
      "stateMutability": "view",
      "type": "function"
    },
    {
      "inputs": [
        {
          "internalType": "uint256",
          "name": "minTokenAmount",
          "type": "uint256"
        }
      ],
      "name": "buyTokenA",
      "outputs": [],
      "stateMutability": "payable",
      "type": "function"
    },
    {
      "inputs": [
        {
          "internalType": "uint256",
          "name": "amountIn",
          "type": "uint256"
        },
        {
          "internalType": "uint256",
          "name": "amountOutMin",
          "type": "uint256"
        }
      ],
      "name": "buyTokenBByTokenA",
      "outputs": [],
      "stateMutability": "nonpayable",
      "type": "function"
    },
    {
      "inputs": [],
      "name": "chef",
      "outputs": [
        {
          "internalType": "contract MasterChef",
          "name": "",
          "type": "address"
        }
      ],
      "stateMutability": "view",
      "type": "function"
    },
    {
      "inputs": [],
      "name": "router",
      "outputs": [
        {
          "internalType": "address",
          "name": "",
          "type": "address"
        }
      ],
      "stateMutability": "view",
      "type": "function"
    },
    {
      "inputs": [],
      "name": "tokenB_Amount",
      "outputs": [
        {
          "internalType": "uint256",
          "name": "",
          "type": "uint256"
        }
      ],
      "stateMutability": "view",
      "type": "function"
    },
    {
      "inputs": [],
      "name": "tokenB_pid",
      "outputs": [
        {
          "internalType": "uint256",
          "name": "",
          "type": "uint256"
        }
      ],
      "stateMutability": "view",
      "type": "function"
    },
    {
      "inputs": [],
      "name": "weth",
      "outputs": [
        {
          "internalType": "address",
          "name": "",
          "type": "address"
        }
      ],
      "stateMutability": "view",
      "type": "function"
    },
    {
      "inputs": [],
      "name": "withdraw",
      "outputs": [],
      "stateMutability": "nonpayable",
      "type": "function"
    },
    {
      "inputs": [],
      "name": "withdrawSuShi",
      "outputs": [],
      "stateMutability": "nonpayable",
      "type": "function"
    }
  ],
  "bytecode": "0x60806040523480156200001157600080fd5b50604051620012163803806200121683398101604081905262000034916200009b565b600080546001600160a01b03199081166001600160a01b03988916179091556001805482169688169690961790955560028054861694871694909417909355600380548516928616929092179091556004805490931693169290921790556005556200013b565b60008060008060008060c08789031215620000b4578182fd5b8651620000c18162000122565b6020880151909650620000d48162000122565b6040880151909550620000e78162000122565b6060880151909450620000fa8162000122565b60808801519093506200010d8162000122565b8092505060a087015190509295509295509295565b6001600160a01b03811681146200013857600080fd5b50565b6110cb806200014b6000396000f3fe6080604052600436106100c25760003560e01c806351de650a1161007f578063d867aec111610059578063d867aec1146101b2578063df776832146101c7578063ed6ab162146101e9578063f887ea40146101fc576100c2565b806351de650a1461016a5780639c9053ff1461018a578063b52c81d41461019d576100c2565b80631fc8bc5d146100c75780633ccfd60b146100f25780633fc8cef31461010957806347cbaba01461011e5780634a4816fc146101335780634c7552d614610155575b600080fd5b3480156100d357600080fd5b506100dc610211565b6040516100e99190610d1c565b60405180910390f35b3480156100fe57600080fd5b50610107610220565b005b34801561011557600080fd5b506100dc610289565b34801561012a57600080fd5b50610107610298565b34801561013f57600080fd5b506101486102cc565b6040516100e99190610f92565b34801561016157600080fd5b506100dc6102d2565b34801561017657600080fd5b50610107610185366004610c6f565b6102e1565b610107610198366004610c3f565b61050d565b3480156101a957600080fd5b506100dc61063b565b3480156101be57600080fd5b5061014861064a565b6101da6101d5366004610c3f565b610650565b6040516100e99392919061101a565b6101da6101f7366004610c6f565b610750565b34801561020857600080fd5b506100dc610881565b6004546001600160a01b031681565b60048054600554600654604051630441a3e760e41b81526001600160a01b039093169363441a3e709361025593929101610fd0565b600060405180830381600087803b15801561026f57600080fd5b505af1158015610283573d6000803e3d6000fd5b50505050565b6003546001600160a01b031681565b60048054600554604051631c57762b60e31b81526001600160a01b039092169263e2bbb15892610255929160009101610fd0565b60055481565b6001546001600160a01b031681565b6000546102f9906001600160a01b0316333085610890565b600254600054610316916001600160a01b039182169116846108e8565b60408051600280825260608201835260009260208301908036833750506000805483519394506001600160a01b03169284925061036357634e487b7160e01b600052603260045260246000fd5b6001600160a01b03928316602091820292909201015260018054835192169183919081106103a157634e487b7160e01b600052603260045260246000fd5b6001600160a01b0392831660209182029290920101526002546040516338ed173960e01b815260609291909116906338ed1739906103eb9087908790879030904290600401610fde565b600060405180830381600087803b15801561040557600080fd5b505af1158015610419573d6000803e3d6000fd5b505050506040513d6000823e601f3d908101601f191682016040526104419190810190610b60565b905080600182516104529190611030565b8151811061047057634e487b7160e01b600052603260045260246000fd5b602090810291909101015160068190556004546001546104a0926001600160a01b039182169291909116906108e8565b60048054600554600654604051631c57762b60e31b81526001600160a01b039093169363e2bbb158936104d593929101610fd0565b600060405180830381600087803b1580156104ef57600080fd5b505af1158015610503573d6000803e3d6000fd5b5050505050505050565b604080516002808252606082018352600092602083019080368337505060035482519293506001600160a01b03169183915060009061055c57634e487b7160e01b600052603260045260246000fd5b6001600160a01b03928316602091820292909201015260005482519116908290600190811061059b57634e487b7160e01b600052603260045260246000fd5b6001600160a01b039283166020918202929092010152600254604051637ff36ab560e01b81526060929190911690637ff36ab59034906105e5908790879033904290600401610f9b565b6000604051808303818588803b1580156105fe57600080fd5b505af1158015610612573d6000803e3d6000fd5b50505050506040513d6000823e601f3d908101601f191682016040526102839190810190610b60565b6000546001600160a01b031681565b60065481565b600080548190819061066d906001600160a01b0316333087610890565b60025460005461068a916001600160a01b039182169116866108e8565b6002546000805460405163f305d71960e01b81526001600160a01b039384169363f305d7199334936106ca939216918a9190819033904290600401610dd0565b6060604051808303818588803b1580156106e357600080fd5b505af11580156106f7573d6000803e3d6000fd5b50505050506040513d601f19601f8201168201806040525081019061071c9190610c90565b91945092509050806107495760405162461bcd60e51b815260040161074090610e84565b60405180910390fd5b9193909250565b600080548190819061076d906001600160a01b0316333088610890565b600154610785906001600160a01b0316333087610890565b6002546000546107a2916001600160a01b039182169116876108e8565b6002546001546107bf916001600160a01b039182169116866108e8565b6002546000805460015460405162e8e33760e81b81526001600160a01b039485169463e8e337009461080494821693909116918b918b91819033904290600401610d6e565b606060405180830381600087803b15801561081e57600080fd5b505af1158015610832573d6000803e3d6000fd5b505050506040513d601f19601f820116820180604052508101906108569190610c90565b919450925090508061087a5760405162461bcd60e51b815260040161074090610e84565b9250925092565b6002546001600160a01b031681565b610283846323b872dd60e01b8585856040516024016108b193929190610d4a565b60408051601f198184030181529190526020810180516001600160e01b03166001600160e01b0319909316929092179091526109b0565b8015806109705750604051636eb1769f60e11b81526001600160a01b0384169063dd62ed3e9061091e9030908690600401610d30565b60206040518083038186803b15801561093657600080fd5b505afa15801561094a573d6000803e3d6000fd5b505050506040513d601f19601f8201168201806040525081019061096e9190610c57565b155b61098c5760405162461bcd60e51b815260040161074090610f3c565b6109ab8363095ea7b360e01b84846040516024016108b1929190610db7565b505050565b6000610a05826040518060400160405280602081526020017f5361666545524332303a206c6f772d6c6576656c2063616c6c206661696c6564815250856001600160a01b0316610a3f9092919063ffffffff16565b8051909150156109ab5780806020019051810190610a239190610c1f565b6109ab5760405162461bcd60e51b815260040161074090610ef2565b6060610a4e8484600085610a58565b90505b9392505050565b606082471015610a7a5760405162461bcd60e51b815260040161074090610e3e565b610a8385610b18565b610a9f5760405162461bcd60e51b815260040161074090610ebb565b600080866001600160a01b03168587604051610abb9190610d00565b60006040518083038185875af1925050503d8060008114610af8576040519150601f19603f3d011682016040523d82523d6000602084013e610afd565b606091505b5091509150610b0d828286610b27565b979650505050505050565b6001600160a01b03163b151590565b60608315610b36575081610a51565b825115610b465782518084602001fd5b8160405162461bcd60e51b81526004016107409190610e0b565b60006020808385031215610b72578182fd5b825167ffffffffffffffff80821115610b89578384fd5b818501915085601f830112610b9c578384fd5b815181811115610bae57610bae61107f565b838102604051601f19603f83011681018181108582111715610bd257610bd261107f565b604052828152858101935084860182860187018a1015610bf0578788fd5b8795505b83861015610c12578051855260019590950194938601938601610bf4565b5098975050505050505050565b600060208284031215610c30578081fd5b81518015158114610a51578182fd5b600060208284031215610c50578081fd5b5035919050565b600060208284031215610c68578081fd5b5051919050565b60008060408385031215610c81578081fd5b50508035926020909101359150565b600080600060608486031215610ca4578081fd5b8351925060208401519150604084015190509250925092565b6000815180845260208085019450808401835b83811015610cf55781516001600160a01b031687529582019590820190600101610cd0565b509495945050505050565b60008251610d12818460208701611053565b9190910192915050565b6001600160a01b0391909116815260200190565b6001600160a01b0392831681529116602082015260400190565b6001600160a01b039384168152919092166020820152604081019190915260600190565b6001600160a01b039889168152968816602088015260408701959095526060860193909352608085019190915260a084015290921660c082015260e08101919091526101000190565b6001600160a01b03929092168252602082015260400190565b6001600160a01b039687168152602081019590955260408501939093526060840191909152909216608082015260a081019190915260c00190565b6000602082528251806020840152610e2a816040850160208701611053565b601f01601f19169190910160400192915050565b60208082526026908201527f416464726573733a20696e73756666696369656e742062616c616e636520666f6040820152651c8818d85b1b60d21b606082015260800190565b6020808252601c908201527f4164644c697175696469747920697320556e7375636365737366756c00000000604082015260600190565b6020808252601d908201527f416464726573733a2063616c6c20746f206e6f6e2d636f6e7472616374000000604082015260600190565b6020808252602a908201527f5361666545524332303a204552433230206f7065726174696f6e20646964206e6040820152691bdd081cdd58d8d9595960b21b606082015260800190565b60208082526036908201527f5361666545524332303a20617070726f76652066726f6d206e6f6e2d7a65726f60408201527520746f206e6f6e2d7a65726f20616c6c6f77616e636560501b606082015260800190565b90815260200190565b600085825260806020830152610fb46080830186610cbd565b6001600160a01b03949094166040830152506060015292915050565b918252602082015260400190565b600086825285602083015260a06040830152610ffd60a0830186610cbd565b6001600160a01b0394909416606083015250608001529392505050565b9283526020830191909152604082015260600190565b60008282101561104e57634e487b7160e01b81526011600452602481fd5b500390565b60005b8381101561106e578181015183820152602001611056565b838111156102835750506000910152565b634e487b7160e01b600052604160045260246000fdfea26469706673582212200bf32a2e16facd95b63577a3459238ccc9efbc3d60bacb107de2f4b9a300e43e64736f6c63430008010033",
  "linkReferences": {},
  "deployedLinkReferences": {}
}