{
  "_format": "hh-sol-artifact-1",
  "contractName": "Treasury",
  "sourceName": "contracts/Treasury.sol",
  "abi": [
    {
      "inputs": [
        {
          "internalType": "address",
          "name": "admin_",
          "type": "address"
        }
      ],
      "stateMutability": "payable",
      "type": "constructor"
    },
    {
      "inputs": [],
      "name": "_admin",
      "outputs": [
        {
          "internalType": "address",
          "name": "",
          "type": "address"
        }
      ],
      "stateMutability": "view",
      "type": "function"
    },
    {
      "inputs": [
        {
          "internalType": "uint256",
          "name": "amount_",
          "type": "uint256"
        }
      ],
      "name": "withdraw",
      "outputs": [],
      "stateMutability": "payable",
      "type": "function"
    }
  ],
  "bytecode": "0x608060405260405161036638038061036683398101604081905261002291610047565b600080546001600160a01b0319166001600160a01b0392909216919091179055610075565b600060208284031215610058578081fd5b81516001600160a01b038116811461006e578182fd5b9392505050565b6102e2806100846000396000f3fe6080604052600436106100295760003560e01c806301bc45c91461002e5780632e1a7d4d14610084575b600080fd5b34801561003a57600080fd5b5060005461005b9073ffffffffffffffffffffffffffffffffffffffff1681565b60405173ffffffffffffffffffffffffffffffffffffffff909116815260200160405180910390f35b61009761009236600461025b565b610099565b005b60005473ffffffffffffffffffffffffffffffffffffffff16331461011f576040517f08c379a000000000000000000000000000000000000000000000000000000000815260206004820152601660248201527f6f6e6c792061646d696e2063616e20646f20746869730000000000000000000060448201526064015b60405180910390fd5b47811115610189576040517f08c379a000000000000000000000000000000000000000000000000000000000815260206004820152600e60248201527f696e7661696c6420616d6f756e740000000000000000000000000000000000006044820152606401610116565b60408051600080825260208201909252339083906040516101aa9190610273565b60006040518083038185875af1925050503d80600081146101e7576040519150601f19603f3d011682016040523d82523d6000602084013e6101ec565b606091505b5050905080610257576040517f08c379a000000000000000000000000000000000000000000000000000000000815260206004820152601160248201527f7472616e7366657220455448206661696c0000000000000000000000000000006044820152606401610116565b5050565b60006020828403121561026c578081fd5b5035919050565b60008251815b818110156102935760208186018101518583015201610279565b818111156102a15782828501525b50919091019291505056fea2646970667358221220fabb19b0aed2e303083e231fbcbb3ab189fdbaa19b059be33244ab8dc755a5f664736f6c63430008030033",
  "linkReferences": {},
  "deployedLinkReferences": {}
}