{
  "_format": "hh-sol-artifact-1",
  "contractName": "SushiToken",
  "sourceName": "contracts/SushiToken.sol",
  "abi": [
    {
      "anonymous": false,
      "inputs": [
        {
          "indexed": true,
          "internalType": "address",
          "name": "owner",
          "type": "address"
        },
        {
          "indexed": true,
          "internalType": "address",
          "name": "spender",
          "type": "address"
        },
        {
          "indexed": false,
          "internalType": "uint256",
          "name": "value",
          "type": "uint256"
        }
      ],
      "name": "Approval",
      "type": "event"
    },
    {
      "anonymous": false,
      "inputs": [
        {
          "indexed": true,
          "internalType": "address",
          "name": "delegator",
          "type": "address"
        },
        {
          "indexed": true,
          "internalType": "address",
          "name": "fromDelegate",
          "type": "address"
        },
        {
          "indexed": true,
          "internalType": "address",
          "name": "toDelegate",
          "type": "address"
        }
      ],
      "name": "DelegateChanged",
      "type": "event"
    },
    {
      "anonymous": false,
      "inputs": [
        {
          "indexed": true,
          "internalType": "address",
          "name": "delegate",
          "type": "address"
        },
        {
          "indexed": false,
          "internalType": "uint256",
          "name": "previousBalance",
          "type": "uint256"
        },
        {
          "indexed": false,
          "internalType": "uint256",
          "name": "newBalance",
          "type": "uint256"
        }
      ],
      "name": "DelegateVotesChanged",
      "type": "event"
    },
    {
      "anonymous": false,
      "inputs": [
        {
          "indexed": true,
          "internalType": "address",
          "name": "previousOwner",
          "type": "address"
        },
        {
          "indexed": true,
          "internalType": "address",
          "name": "newOwner",
          "type": "address"
        }
      ],
      "name": "OwnershipTransferred",
      "type": "event"
    },
    {
      "anonymous": false,
      "inputs": [
        {
          "indexed": true,
          "internalType": "address",
          "name": "from",
          "type": "address"
        },
        {
          "indexed": true,
          "internalType": "address",
          "name": "to",
          "type": "address"
        },
        {
          "indexed": false,
          "internalType": "uint256",
          "name": "value",
          "type": "uint256"
        }
      ],
      "name": "Transfer",
      "type": "event"
    },
    {
      "inputs": [],
      "name": "DELEGATION_TYPEHASH",
      "outputs": [
        {
          "internalType": "bytes32",
          "name": "",
          "type": "bytes32"
        }
      ],
      "stateMutability": "view",
      "type": "function"
    },
    {
      "inputs": [],
      "name": "DOMAIN_TYPEHASH",
      "outputs": [
        {
          "internalType": "bytes32",
          "name": "",
          "type": "bytes32"
        }
      ],
      "stateMutability": "view",
      "type": "function"
    },
    {
      "inputs": [
        {
          "internalType": "address",
          "name": "owner",
          "type": "address"
        },
        {
          "internalType": "address",
          "name": "spender",
          "type": "address"
        }
      ],
      "name": "allowance",
      "outputs": [
        {
          "internalType": "uint256",
          "name": "",
          "type": "uint256"
        }
      ],
      "stateMutability": "view",
      "type": "function"
    },
    {
      "inputs": [
        {
          "internalType": "address",
          "name": "spender",
          "type": "address"
        },
        {
          "internalType": "uint256",
          "name": "amount",
          "type": "uint256"
        }
      ],
      "name": "approve",
      "outputs": [
        {
          "internalType": "bool",
          "name": "",
          "type": "bool"
        }
      ],
      "stateMutability": "nonpayable",
      "type": "function"
    },
    {
      "inputs": [
        {
          "internalType": "address",
          "name": "account",
          "type": "address"
        }
      ],
      "name": "balanceOf",
      "outputs": [
        {
          "internalType": "uint256",
          "name": "",
          "type": "uint256"
        }
      ],
      "stateMutability": "view",
      "type": "function"
    },
    {
      "inputs": [
        {
          "internalType": "address",
          "name": "",
          "type": "address"
        },
        {
          "internalType": "uint32",
          "name": "",
          "type": "uint32"
        }
      ],
      "name": "checkpoints",
      "outputs": [
        {
          "internalType": "uint32",
          "name": "fromBlock",
          "type": "uint32"
        },
        {
          "internalType": "uint256",
          "name": "votes",
          "type": "uint256"
        }
      ],
      "stateMutability": "view",
      "type": "function"
    },
    {
      "inputs": [],
      "name": "decimals",
      "outputs": [
        {
          "internalType": "uint8",
          "name": "",
          "type": "uint8"
        }
      ],
      "stateMutability": "view",
      "type": "function"
    },
    {
      "inputs": [
        {
          "internalType": "address",
          "name": "spender",
          "type": "address"
        },
        {
          "internalType": "uint256",
          "name": "subtractedValue",
          "type": "uint256"
        }
      ],
      "name": "decreaseAllowance",
      "outputs": [
        {
          "internalType": "bool",
          "name": "",
          "type": "bool"
        }
      ],
      "stateMutability": "nonpayable",
      "type": "function"
    },
    {
      "inputs": [
        {
          "internalType": "address",
          "name": "delegatee",
          "type": "address"
        }
      ],
      "name": "delegate",
      "outputs": [],
      "stateMutability": "nonpayable",
      "type": "function"
    },
    {
      "inputs": [
        {
          "internalType": "address",
          "name": "delegatee",
          "type": "address"
        },
        {
          "internalType": "uint256",
          "name": "nonce",
          "type": "uint256"
        },
        {
          "internalType": "uint256",
          "name": "expiry",
          "type": "uint256"
        },
        {
          "internalType": "uint8",
          "name": "v",
          "type": "uint8"
        },
        {
          "internalType": "bytes32",
          "name": "r",
          "type": "bytes32"
        },
        {
          "internalType": "bytes32",
          "name": "s",
          "type": "bytes32"
        }
      ],
      "name": "delegateBySig",
      "outputs": [],
      "stateMutability": "nonpayable",
      "type": "function"
    },
    {
      "inputs": [
        {
          "internalType": "address",
          "name": "delegator",
          "type": "address"
        }
      ],
      "name": "delegates",
      "outputs": [
        {
          "internalType": "address",
          "name": "",
          "type": "address"
        }
      ],
      "stateMutability": "view",
      "type": "function"
    },
    {
      "inputs": [
        {
          "internalType": "address",
          "name": "account",
          "type": "address"
        }
      ],
      "name": "getCurrentVotes",
      "outputs": [
        {
          "internalType": "uint256",
          "name": "",
          "type": "uint256"
        }
      ],
      "stateMutability": "view",
      "type": "function"
    },
    {
      "inputs": [
        {
          "internalType": "address",
          "name": "account",
          "type": "address"
        },
        {
          "internalType": "uint256",
          "name": "blockNumber",
          "type": "uint256"
        }
      ],
      "name": "getPriorVotes",
      "outputs": [
        {
          "internalType": "uint256",
          "name": "",
          "type": "uint256"
        }
      ],
      "stateMutability": "view",
      "type": "function"
    },
    {
      "inputs": [
        {
          "internalType": "address",
          "name": "spender",
          "type": "address"
        },
        {
          "internalType": "uint256",
          "name": "addedValue",
          "type": "uint256"
        }
      ],
      "name": "increaseAllowance",
      "outputs": [
        {
          "internalType": "bool",
          "name": "",
          "type": "bool"
        }
      ],
      "stateMutability": "nonpayable",
      "type": "function"
    },
    {
      "inputs": [
        {
          "internalType": "address",
          "name": "_to",
          "type": "address"
        },
        {
          "internalType": "uint256",
          "name": "_amount",
          "type": "uint256"
        }
      ],
      "name": "mint",
      "outputs": [],
      "stateMutability": "nonpayable",
      "type": "function"
    },
    {
      "inputs": [],
      "name": "name",
      "outputs": [
        {
          "internalType": "string",
          "name": "",
          "type": "string"
        }
      ],
      "stateMutability": "view",
      "type": "function"
    },
    {
      "inputs": [
        {
          "internalType": "address",
          "name": "",
          "type": "address"
        }
      ],
      "name": "nonces",
      "outputs": [
        {
          "internalType": "uint256",
          "name": "",
          "type": "uint256"
        }
      ],
      "stateMutability": "view",
      "type": "function"
    },
    {
      "inputs": [
        {
          "internalType": "address",
          "name": "",
          "type": "address"
        }
      ],
      "name": "numCheckpoints",
      "outputs": [
        {
          "internalType": "uint32",
          "name": "",
          "type": "uint32"
        }
      ],
      "stateMutability": "view",
      "type": "function"
    },
    {
      "inputs": [],
      "name": "owner",
      "outputs": [
        {
          "internalType": "address",
          "name": "",
          "type": "address"
        }
      ],
      "stateMutability": "view",
      "type": "function"
    },
    {
      "inputs": [],
      "name": "renounceOwnership",
      "outputs": [],
      "stateMutability": "nonpayable",
      "type": "function"
    },
    {
      "inputs": [],
      "name": "symbol",
      "outputs": [
        {
          "internalType": "string",
          "name": "",
          "type": "string"
        }
      ],
      "stateMutability": "view",
      "type": "function"
    },
    {
      "inputs": [],
      "name": "totalSupply",
      "outputs": [
        {
          "internalType": "uint256",
          "name": "",
          "type": "uint256"
        }
      ],
      "stateMutability": "view",
      "type": "function"
    },
    {
      "inputs": [
        {
          "internalType": "address",
          "name": "to",
          "type": "address"
        },
        {
          "internalType": "uint256",
          "name": "amount",
          "type": "uint256"
        }
      ],
      "name": "transfer",
      "outputs": [
        {
          "internalType": "bool",
          "name": "",
          "type": "bool"
        }
      ],
      "stateMutability": "nonpayable",
      "type": "function"
    },
    {
      "inputs": [
        {
          "internalType": "address",
          "name": "from",
          "type": "address"
        },
        {
          "internalType": "address",
          "name": "to",
          "type": "address"
        },
        {
          "internalType": "uint256",
          "name": "amount",
          "type": "uint256"
        }
      ],
      "name": "transferFrom",
      "outputs": [
        {
          "internalType": "bool",
          "name": "",
          "type": "bool"
        }
      ],
      "stateMutability": "nonpayable",
      "type": "function"
    },
    {
      "inputs": [
        {
          "internalType": "address",
          "name": "newOwner",
          "type": "address"
        }
      ],
      "name": "transferOwnership",
      "outputs": [],
      "stateMutability": "nonpayable",
      "type": "function"
    }
  ],
  "bytecode": "0x60806040523480156200001157600080fd5b50604080518082018252600a81526929bab9b434aa37b5b2b760b11b602080830191825283518085019094526005845264535553484960d81b9084015281519192916200006191600391620000f0565b50805162000077906004906020840190620000f0565b505050620000946200008e6200009a60201b60201c565b6200009e565b620001d3565b3390565b600580546001600160a01b038381166001600160a01b0319831681179093556040519116919082907f8be0079c531659141344cd1fd0a4f28419497f9722a3daafe3b4186f6b6457e090600090a35050565b828054620000fe9062000196565b90600052602060002090601f0160209004810192826200012257600085556200016d565b82601f106200013d57805160ff19168380011785556200016d565b828001600101855582156200016d579182015b828111156200016d57825182559160200191906001019062000150565b506200017b9291506200017f565b5090565b5b808211156200017b576000815560010162000180565b600281046001821680620001ab57607f821691505b60208210811415620001cd57634e487b7160e01b600052602260045260246000fd5b50919050565b611a9180620001e36000396000f3fe608060405234801561001057600080fd5b50600436106101735760003560e01c8063715018a6116100de578063a9059cbb11610097578063dd62ed3e11610071578063dd62ed3e14610313578063e7a324dc14610326578063f1127ed81461032e578063f2fde38b1461034f57610173565b8063a9059cbb146102da578063b4b5ea57146102ed578063c3cda5201461030057610173565b8063715018a614610289578063782d6fe1146102915780637ecebe00146102a45780638da5cb5b146102b757806395d89b41146102bf578063a457c2d7146102c757610173565b8063395093511161013057806339509351146101fb57806340c10f191461020e578063587cde1e146102235780635c19a95c146102435780636fcfff451461025657806370a082311461027657610173565b806306fdde0314610178578063095ea7b31461019657806318160ddd146101b657806320606b70146101cb57806323b872dd146101d3578063313ce567146101e6575b600080fd5b610180610362565b60405161018d91906114de565b60405180910390f35b6101a96101a4366004611370565b6103f4565b60405161018d9190611464565b6101be610418565b60405161018d919061146f565b6101be61041e565b6101a96101e1366004611335565b610442565b6101ee610470565b60405161018d9190611901565b6101a9610209366004611370565b610475565b61022161021c366004611370565b6104c1565b005b6102366102313660046112e9565b6104f4565b60405161018d9190611450565b6102216102513660046112e9565b610515565b6102696102643660046112e9565b610522565b60405161018d91906118da565b6101be6102843660046112e9565b61053a565b610221610555565b6101be61029f366004611370565b6105a9565b6101be6102b23660046112e9565b6107ce565b6102366107e0565b6101806107ef565b6101a96102d5366004611370565b6107fe565b6101a96102e8366004611370565b61085f565b6101be6102fb3660046112e9565b610877565b61022161030e366004611399565b6108ec565b6101be610321366004611303565b610ac7565b6101be610af2565b61034161033c3660046113f7565b610b16565b60405161018d9291906118eb565b61022161035d3660046112e9565b610b43565b606060038054610371906119ba565b80601f016020809104026020016040519081016040528092919081815260200182805461039d906119ba565b80156103ea5780601f106103bf576101008083540402835291602001916103ea565b820191906000526020600020905b8154815290600101906020018083116103cd57829003601f168201915b5050505050905090565b6000806103ff610bb1565b905061040c818585610bb5565b60019150505b92915050565b60025490565b7f8cad95687ba82c2ce50e74f7b754645e5117c3a5bec8151c0726d5857980a86681565b60008061044d610bb1565b905061045a858285610c69565b610465858585610cb3565b506001949350505050565b601290565b600080610480610bb1565b6001600160a01b0380821660009081526001602090815260408083209389168352929052205490915061040c90829086906104bc90879061190f565b610bb5565b6104cb8282610dd7565b6001600160a01b038083166000908152600660205260408120546104f0921683610e9f565b5050565b6001600160a01b03808216600090815260066020526040902054165b919050565b61051f3382611003565b50565b60086020526000908152604090205463ffffffff1681565b6001600160a01b031660009081526020819052604090205490565b61055d610bb1565b6001600160a01b031661056e6107e0565b6001600160a01b03161461059d5760405162461bcd60e51b815260040161059490611708565b60405180910390fd5b6105a76000611092565b565b60004382106105ca5760405162461bcd60e51b8152600401610594906116c0565b6001600160a01b03831660009081526008602052604090205463ffffffff16806105f8576000915050610412565b6001600160a01b0384166000908152600760205260408120849161061d600185611995565b63ffffffff90811682526020820192909252604001600020541611610686576001600160a01b038416600090815260076020526040812090610660600184611995565b63ffffffff1663ffffffff16815260200190815260200160002060010154915050610412565b6001600160a01b038416600090815260076020908152604080832083805290915290205463ffffffff168310156106c1576000915050610412565b6000806106cf600184611995565b90505b8163ffffffff168163ffffffff16111561079757600060026106f48484611995565b6106fe919061194f565b6107089083611995565b6001600160a01b038816600090815260076020908152604080832063ffffffff808616855290835292819020815180830190925280549093168082526001909301549181019190915291925087141561076b576020015194506104129350505050565b805163ffffffff1687111561078257819350610790565b61078d600183611995565b92505b50506106d2565b506001600160a01b038516600090815260076020908152604080832063ffffffff9094168352929052206001015491505092915050565b60096020526000908152604090205481565b6005546001600160a01b031690565b606060048054610371906119ba565b600080610809610bb1565b6001600160a01b03808216600090815260016020908152604080832093891683529290522054909150838110156108525760405162461bcd60e51b815260040161059490611850565b6104658286868403610bb5565b60008061086a610bb1565b905061040c818585610cb3565b6001600160a01b03811660009081526008602052604081205463ffffffff16806108a25760006108e5565b6001600160a01b0383166000908152600760205260408120906108c6600184611995565b63ffffffff1663ffffffff168152602001908152602001600020600101545b9392505050565b60007f8cad95687ba82c2ce50e74f7b754645e5117c3a5bec8151c0726d5857980a866610917610362565b805190602001206109266110e4565b3060405160200161093a949392919061149c565b60405160208183030381529060405280519060200120905060007fe48329057bfd03d55e49b547132e39cffd9c1820ad7b9d4c5307691425d15adf88888860405160200161098b9493929190611478565b604051602081830303815290604052805190602001209050600082826040516020016109b8929190611435565b6040516020818303038152906040528051906020012090506000600182888888604051600081526020016040526040516109f594939291906114c0565b6020604051602081039080840390855afa158015610a17573d6000803e3d6000fd5b5050604051601f1901519150506001600160a01b038116610a4a5760405162461bcd60e51b815260040161059490611780565b6001600160a01b0381166000908152600960205260408120805491610a6e836119f5565b919050558914610a905760405162461bcd60e51b81526004016105949061173d565b87421115610ab05760405162461bcd60e51b815260040161059490611574565b610aba818b611003565b505050505b505050505050565b6001600160a01b03918216600090815260016020908152604080832093909416825291909152205490565b7fe48329057bfd03d55e49b547132e39cffd9c1820ad7b9d4c5307691425d15adf81565b60076020908152600092835260408084209091529082529020805460019091015463ffffffff9091169082565b610b4b610bb1565b6001600160a01b0316610b5c6107e0565b6001600160a01b031614610b825760405162461bcd60e51b815260040161059490611708565b6001600160a01b038116610ba85760405162461bcd60e51b8152600401610594906115bb565b61051f81611092565b3390565b6001600160a01b038316610bdb5760405162461bcd60e51b81526004016105949061180c565b6001600160a01b038216610c015760405162461bcd60e51b815260040161059490611601565b6001600160a01b0380841660008181526001602090815260408083209487168084529490915290819020849055517f8c5be1e5ebec7d5bd14f71427d1e84f3dd0314c0f7b2291e5b200ac8c7c3b92590610c5c90859061146f565b60405180910390a3505050565b6000610c758484610ac7565b90506000198114610cad5781811015610ca05760405162461bcd60e51b815260040161059490611643565b610cad8484848403610bb5565b50505050565b6001600160a01b038316610cd95760405162461bcd60e51b8152600401610594906117c7565b6001600160a01b038216610cff5760405162461bcd60e51b815260040161059490611531565b610d0a838383610ffe565b6001600160a01b03831660009081526020819052604090205481811015610d435760405162461bcd60e51b81526004016105949061167a565b6001600160a01b03808516600090815260208190526040808220858503905591851681529081208054849290610d7a90849061190f565b92505081905550826001600160a01b0316846001600160a01b03167fddf252ad1be2c89b69c2b068fc378daa952ba7f163c4a11628f55a4df523b3ef84604051610dc4919061146f565b60405180910390a3610cad848484610ffe565b6001600160a01b038216610dfd5760405162461bcd60e51b815260040161059490611895565b610e0960008383610ffe565b8060026000828254610e1b919061190f565b90915550506001600160a01b03821660009081526020819052604081208054839290610e4890849061190f565b90915550506040516001600160a01b038316906000907fddf252ad1be2c89b69c2b068fc378daa952ba7f163c4a11628f55a4df523b3ef90610e8b90859061146f565b60405180910390a36104f060008383610ffe565b816001600160a01b0316836001600160a01b031614158015610ec15750600081115b15610ffe576001600160a01b03831615610f64576001600160a01b03831660009081526008602052604081205463ffffffff169081610f01576000610f44565b6001600160a01b038516600090815260076020526040812090610f25600185611995565b63ffffffff1663ffffffff168152602001908152602001600020600101545b90506000610f5282856110e9565b9050610f60868484846110f5565b5050505b6001600160a01b03821615610ffe576001600160a01b03821660009081526008602052604081205463ffffffff169081610f9f576000610fe2565b6001600160a01b038416600090815260076020526040812090610fc3600185611995565b63ffffffff1663ffffffff168152602001908152602001600020600101545b90506000610ff08285611296565b9050610abf858484846110f5565b505050565b6001600160a01b038083166000908152600660205260408120549091169061102a8461053a565b6001600160a01b0385811660008181526006602052604080822080546001600160a01b031916898616908117909155905194955093928616927f3134e8a2e6d97e929a7e54011ea5485d7d196dd5f0ba4d4ef95803e8e3fc257f9190a4610cad828483610e9f565b600580546001600160a01b038381166001600160a01b0319831681179093556040519116919082907f8be0079c531659141344cd1fd0a4f28419497f9722a3daafe3b4186f6b6457e090600090a35050565b600090565b60006108e5828461197e565b600061111943604051806060016040528060358152602001611a27603591396112a2565b905060008463ffffffff1611801561117357506001600160a01b038516600090815260076020526040812063ffffffff831691611157600188611995565b63ffffffff908116825260208201929092526040016000205416145b156111bc576001600160a01b0385166000908152600760205260408120839161119d600188611995565b63ffffffff16815260208101919091526040016000206001015561124c565b60408051808201825263ffffffff838116825260208083018681526001600160a01b038a166000908152600783528581208a851682529092529390209151825463ffffffff19169116178155905160019182015561121b908590611927565b6001600160a01b0386166000908152600860205260409020805463ffffffff191663ffffffff929092169190911790555b846001600160a01b03167fdec2bacdd2f05b59de34da9b523dff8be42e5e38e818c82fdb0bae774387a72484846040516112879291906118cc565b60405180910390a25050505050565b60006108e5828461190f565b60008164010000000084106112ca5760405162461bcd60e51b815260040161059491906114de565b509192915050565b80356001600160a01b038116811461051057600080fd5b6000602082840312156112fa578081fd5b6108e5826112d2565b60008060408385031215611315578081fd5b61131e836112d2565b915061132c602084016112d2565b90509250929050565b600080600060608486031215611349578081fd5b611352846112d2565b9250611360602085016112d2565b9150604084013590509250925092565b60008060408385031215611382578182fd5b61138b836112d2565b946020939093013593505050565b60008060008060008060c087890312156113b1578182fd5b6113ba876112d2565b95506020870135945060408701359350606087013560ff811681146113dd578283fd5b9598949750929560808101359460a0909101359350915050565b60008060408385031215611409578182fd5b611412836112d2565b9150602083013563ffffffff8116811461142a578182fd5b809150509250929050565b61190160f01b81526002810192909252602282015260420190565b6001600160a01b0391909116815260200190565b901515815260200190565b90815260200190565b9384526001600160a01b039290921660208401526040830152606082015260800190565b938452602084019290925260408301526001600160a01b0316606082015260800190565b93845260ff9290921660208401526040830152606082015260800190565b6000602080835283518082850152825b8181101561150a578581018301518582016040015282016114ee565b8181111561151b5783604083870101525b50601f01601f1916929092016040019392505050565b60208082526023908201527f45524332303a207472616e7366657220746f20746865207a65726f206164647260408201526265737360e81b606082015260800190565b60208082526027908201527f53555348493a3a64656c656761746542795369673a207369676e617475726520604082015266195e1c1a5c995960ca1b606082015260800190565b60208082526026908201527f4f776e61626c653a206e6577206f776e657220697320746865207a65726f206160408201526564647265737360d01b606082015260800190565b60208082526022908201527f45524332303a20617070726f766520746f20746865207a65726f206164647265604082015261737360f01b606082015260800190565b6020808252601d908201527f45524332303a20696e73756666696369656e7420616c6c6f77616e6365000000604082015260600190565b60208082526026908201527f45524332303a207472616e7366657220616d6f756e7420657863656564732062604082015265616c616e636560d01b606082015260800190565b60208082526028908201527f53555348493a3a6765745072696f72566f7465733a206e6f74207965742064656040820152671d195c9b5a5b995960c21b606082015260800190565b6020808252818101527f4f776e61626c653a2063616c6c6572206973206e6f7420746865206f776e6572604082015260600190565b60208082526023908201527f53555348493a3a64656c656761746542795369673a20696e76616c6964206e6f6040820152626e636560e81b606082015260800190565b60208082526027908201527f53555348493a3a64656c656761746542795369673a20696e76616c6964207369604082015266676e617475726560c81b606082015260800190565b60208082526025908201527f45524332303a207472616e736665722066726f6d20746865207a65726f206164604082015264647265737360d81b606082015260800190565b60208082526024908201527f45524332303a20617070726f76652066726f6d20746865207a65726f206164646040820152637265737360e01b606082015260800190565b60208082526025908201527f45524332303a2064656372656173656420616c6c6f77616e63652062656c6f77604082015264207a65726f60d81b606082015260800190565b6020808252601f908201527f45524332303a206d696e7420746f20746865207a65726f206164647265737300604082015260600190565b918252602082015260400190565b63ffffffff91909116815260200190565b63ffffffff929092168252602082015260400190565b60ff91909116815260200190565b6000821982111561192257611922611a10565b500190565b600063ffffffff80831681851680830382111561194657611946611a10565b01949350505050565b600063ffffffff8084168061197257634e487b7160e01b83526012600452602483fd5b92169190910492915050565b60008282101561199057611990611a10565b500390565b600063ffffffff838116908316818110156119b2576119b2611a10565b039392505050565b6002810460018216806119ce57607f821691505b602082108114156119ef57634e487b7160e01b600052602260045260246000fd5b50919050565b6000600019821415611a0957611a09611a10565b5060010190565b634e487b7160e01b600052601160045260246000fdfe53555348493a3a5f7772697465436865636b706f696e743a20626c6f636b206e756d62657220657863656564732033322062697473a2646970667358221220a5fc6268386e245f2bb5263b8b8f5bb2c7b191fe2f837e35437ac9878d68484464736f6c63430008010033",
  "linkReferences": {},
  "deployedLinkReferences": {}
}