{
  "_format": "hh-sol-artifact-1",
  "contractName": "MyNFT",
  "sourceName": "contracts/MyNFT.sol",
  "abi": [
    {
      "inputs": [],
      "stateMutability": "nonpayable",
      "type": "constructor"
    },
    {
      "anonymous": false,
      "inputs": [
        {
          "indexed": true,
          "internalType": "address",
          "name": "owner",
          "type": "address"
        },
        {
          "indexed": true,
          "internalType": "address",
          "name": "approved",
          "type": "address"
        },
        {
          "indexed": true,
          "internalType": "uint256",
          "name": "tokenId",
          "type": "uint256"
        }
      ],
      "name": "Approval",
      "type": "event"
    },
    {
      "anonymous": false,
      "inputs": [
        {
          "indexed": true,
          "internalType": "address",
          "name": "owner",
          "type": "address"
        },
        {
          "indexed": true,
          "internalType": "address",
          "name": "operator",
          "type": "address"
        },
        {
          "indexed": false,
          "internalType": "bool",
          "name": "approved",
          "type": "bool"
        }
      ],
      "name": "ApprovalForAll",
      "type": "event"
    },
    {
      "anonymous": false,
      "inputs": [
        {
          "indexed": true,
          "internalType": "address",
          "name": "from",
          "type": "address"
        },
        {
          "indexed": true,
          "internalType": "address",
          "name": "to",
          "type": "address"
        },
        {
          "indexed": true,
          "internalType": "uint256",
          "name": "tokenId",
          "type": "uint256"
        }
      ],
      "name": "Transfer",
      "type": "event"
    },
    {
      "inputs": [
        {
          "internalType": "address",
          "name": "to",
          "type": "address"
        },
        {
          "internalType": "uint256",
          "name": "tokenId",
          "type": "uint256"
        }
      ],
      "name": "approve",
      "outputs": [],
      "stateMutability": "nonpayable",
      "type": "function"
    },
    {
      "inputs": [
        {
          "internalType": "address",
          "name": "owner",
          "type": "address"
        }
      ],
      "name": "balanceOf",
      "outputs": [
        {
          "internalType": "uint256",
          "name": "",
          "type": "uint256"
        }
      ],
      "stateMutability": "view",
      "type": "function"
    },
    {
      "inputs": [
        {
          "internalType": "address",
          "name": "_to",
          "type": "address"
        },
        {
          "internalType": "uint256",
          "name": "_tokenId",
          "type": "uint256"
        }
      ],
      "name": "createNFT",
      "outputs": [
        {
          "internalType": "uint256",
          "name": "",
          "type": "uint256"
        }
      ],
      "stateMutability": "nonpayable",
      "type": "function"
    },
    {
      "inputs": [
        {
          "internalType": "uint256",
          "name": "tokenId",
          "type": "uint256"
        }
      ],
      "name": "getApproved",
      "outputs": [
        {
          "internalType": "address",
          "name": "",
          "type": "address"
        }
      ],
      "stateMutability": "view",
      "type": "function"
    },
    {
      "inputs": [
        {
          "internalType": "address",
          "name": "owner",
          "type": "address"
        },
        {
          "internalType": "address",
          "name": "operator",
          "type": "address"
        }
      ],
      "name": "isApprovedForAll",
      "outputs": [
        {
          "internalType": "bool",
          "name": "",
          "type": "bool"
        }
      ],
      "stateMutability": "view",
      "type": "function"
    },
    {
      "inputs": [],
      "name": "name",
      "outputs": [
        {
          "internalType": "string",
          "name": "",
          "type": "string"
        }
      ],
      "stateMutability": "view",
      "type": "function"
    },
    {
      "inputs": [
        {
          "internalType": "uint256",
          "name": "tokenId",
          "type": "uint256"
        }
      ],
      "name": "ownerOf",
      "outputs": [
        {
          "internalType": "address",
          "name": "",
          "type": "address"
        }
      ],
      "stateMutability": "view",
      "type": "function"
    },
    {
      "inputs": [
        {
          "internalType": "address",
          "name": "from",
          "type": "address"
        },
        {
          "internalType": "address",
          "name": "to",
          "type": "address"
        },
        {
          "internalType": "uint256",
          "name": "tokenId",
          "type": "uint256"
        }
      ],
      "name": "safeTransferFrom",
      "outputs": [],
      "stateMutability": "nonpayable",
      "type": "function"
    },
    {
      "inputs": [
        {
          "internalType": "address",
          "name": "from",
          "type": "address"
        },
        {
          "internalType": "address",
          "name": "to",
          "type": "address"
        },
        {
          "internalType": "uint256",
          "name": "tokenId",
          "type": "uint256"
        },
        {
          "internalType": "bytes",
          "name": "_data",
          "type": "bytes"
        }
      ],
      "name": "safeTransferFrom",
      "outputs": [],
      "stateMutability": "nonpayable",
      "type": "function"
    },
    {
      "inputs": [
        {
          "internalType": "address",
          "name": "operator",
          "type": "address"
        },
        {
          "internalType": "bool",
          "name": "approved",
          "type": "bool"
        }
      ],
      "name": "setApprovalForAll",
      "outputs": [],
      "stateMutability": "nonpayable",
      "type": "function"
    },
    {
      "inputs": [
        {
          "internalType": "bytes4",
          "name": "interfaceId",
          "type": "bytes4"
        }
      ],
      "name": "supportsInterface",
      "outputs": [
        {
          "internalType": "bool",
          "name": "",
          "type": "bool"
        }
      ],
      "stateMutability": "view",
      "type": "function"
    },
    {
      "inputs": [],
      "name": "symbol",
      "outputs": [
        {
          "internalType": "string",
          "name": "",
          "type": "string"
        }
      ],
      "stateMutability": "view",
      "type": "function"
    },
    {
      "inputs": [
        {
          "internalType": "uint256",
          "name": "tokenId",
          "type": "uint256"
        }
      ],
      "name": "tokenURI",
      "outputs": [
        {
          "internalType": "string",
          "name": "",
          "type": "string"
        }
      ],
      "stateMutability": "view",
      "type": "function"
    },
    {
      "inputs": [
        {
          "internalType": "address",
          "name": "from",
          "type": "address"
        },
        {
          "internalType": "address",
          "name": "to",
          "type": "address"
        },
        {
          "internalType": "uint256",
          "name": "tokenId",
          "type": "uint256"
        }
      ],
      "name": "transferFrom",
      "outputs": [],
      "stateMutability": "nonpayable",
      "type": "function"
    }
  ],
  "bytecode": "0x60806040523480156200001157600080fd5b506040518060400160405280600581526020017f4d794e46540000000000000000000000000000000000000000000000000000008152506040518060400160405280600781526020017f616263644e465400000000000000000000000000000000000000000000000000815250816000908051906020019062000096929190620000b8565b508060019080519060200190620000af929190620000b8565b505050620001cd565b828054620000c69062000168565b90600052602060002090601f016020900481019282620000ea576000855562000136565b82601f106200010557805160ff191683800117855562000136565b8280016001018555821562000136579182015b828111156200013557825182559160200191906001019062000118565b5b50905062000145919062000149565b5090565b5b80821115620001645760008160009055506001016200014a565b5090565b600060028204905060018216806200018157607f821691505b602082108114156200019857620001976200019e565b5b50919050565b7f4e487b7100000000000000000000000000000000000000000000000000000000600052602260045260246000fd5b6126d980620001dd6000396000f3fe608060405234801561001057600080fd5b50600436106100ea5760003560e01c806370a082311161008c578063b88d4fde11610066578063b88d4fde1461025b578063c11c956c14610277578063c87b56dd146102a7578063e985e9c5146102d7576100ea565b806370a08231146101f157806395d89b4114610221578063a22cb4651461023f576100ea565b8063095ea7b3116100c8578063095ea7b31461016d57806323b872dd1461018957806342842e0e146101a55780636352211e146101c1576100ea565b806301ffc9a7146100ef57806306fdde031461011f578063081812fc1461013d575b600080fd5b610109600480360381019061010491906118db565b610307565b6040516101169190611c9b565b60405180910390f35b6101276103e9565b6040516101349190611cb6565b60405180910390f35b6101576004803603810190610152919061192d565b61047b565b6040516101649190611c34565b60405180910390f35b6101876004803603810190610182919061189f565b610500565b005b6101a3600480360381019061019e9190611799565b610618565b005b6101bf60048036038101906101ba9190611799565b610678565b005b6101db60048036038101906101d6919061192d565b610698565b6040516101e89190611c34565b60405180910390f35b61020b60048036038101906102069190611734565b61074a565b6040516102189190611e98565b60405180910390f35b610229610802565b6040516102369190611cb6565b60405180910390f35b61025960048036038101906102549190611863565b610894565b005b610275600480360381019061027091906117e8565b6108aa565b005b610291600480360381019061028c919061189f565b61090c565b60405161029e9190611e98565b60405180910390f35b6102c160048036038101906102bc919061192d565b610921565b6040516102ce9190611cb6565b60405180910390f35b6102f160048036038101906102ec919061175d565b6109c8565b6040516102fe9190611c9b565b60405180910390f35b60007f80ac58cd000000000000000000000000000000000000000000000000000000007bffffffffffffffffffffffffffffffffffffffffffffffffffffffff1916827bffffffffffffffffffffffffffffffffffffffffffffffffffffffff191614806103d257507f5b5e139f000000000000000000000000000000000000000000000000000000007bffffffffffffffffffffffffffffffffffffffffffffffffffffffff1916827bffffffffffffffffffffffffffffffffffffffffffffffffffffffff1916145b806103e257506103e182610a5c565b5b9050919050565b6060600080546103f8906120bd565b80601f0160208091040260200160405190810160405280929190818152602001828054610424906120bd565b80156104715780601f1061044657610100808354040283529160200191610471565b820191906000526020600020905b81548152906001019060200180831161045457829003601f168201915b5050505050905090565b600061048682610ac6565b6104c5576040517f08c379a00000000000000000000000000000000000000000000000000000000081526004016104bc90611e18565b60405180910390fd5b6004600083815260200190815260200160002060009054906101000a900473ffffffffffffffffffffffffffffffffffffffff169050919050565b600061050b82610698565b90508073ffffffffffffffffffffffffffffffffffffffff168373ffffffffffffffffffffffffffffffffffffffff16141561057c576040517f08c379a000000000000000000000000000000000000000000000000000000000815260040161057390611e58565b60405180910390fd5b8073ffffffffffffffffffffffffffffffffffffffff1661059b610b32565b73ffffffffffffffffffffffffffffffffffffffff1614806105ca57506105c9816105c4610b32565b6109c8565b5b610609576040517f08c379a000000000000000000000000000000000000000000000000000000000815260040161060090611d98565b60405180910390fd5b6106138383610b3a565b505050565b610629610623610b32565b82610bf3565b610668576040517f08c379a000000000000000000000000000000000000000000000000000000000815260040161065f90611e78565b60405180910390fd5b610673838383610cd1565b505050565b610693838383604051806020016040528060008152506108aa565b505050565b6000806002600084815260200190815260200160002060009054906101000a900473ffffffffffffffffffffffffffffffffffffffff169050600073ffffffffffffffffffffffffffffffffffffffff168173ffffffffffffffffffffffffffffffffffffffff161415610741576040517f08c379a000000000000000000000000000000000000000000000000000000000815260040161073890611dd8565b60405180910390fd5b80915050919050565b60008073ffffffffffffffffffffffffffffffffffffffff168273ffffffffffffffffffffffffffffffffffffffff1614156107bb576040517f08c379a00000000000000000000000000000000000000000000000000000000081526004016107b290611db8565b60405180910390fd5b600360008373ffffffffffffffffffffffffffffffffffffffff1673ffffffffffffffffffffffffffffffffffffffff168152602001908152602001600020549050919050565b606060018054610811906120bd565b80601f016020809104026020016040519081016040528092919081815260200182805461083d906120bd565b801561088a5780601f1061085f5761010080835404028352916020019161088a565b820191906000526020600020905b81548152906001019060200180831161086d57829003601f168201915b5050505050905090565b6108a661089f610b32565b8383610f38565b5050565b6108bb6108b5610b32565b83610bf3565b6108fa576040517f08c379a00000000000000000000000000000000000000000000000000000000081526004016108f190611e78565b60405180910390fd5b610906848484846110a5565b50505050565b60006109188383611101565b81905092915050565b606061092c82610ac6565b61096b576040517f08c379a000000000000000000000000000000000000000000000000000000000815260040161096290611e38565b60405180910390fd5b60006109756112db565b9050600081511161099557604051806020016040528060008152506109c0565b8061099f846112f2565b6040516020016109b0929190611c10565b6040516020818303038152906040525b915050919050565b6000600560008473ffffffffffffffffffffffffffffffffffffffff1673ffffffffffffffffffffffffffffffffffffffff16815260200190815260200160002060008373ffffffffffffffffffffffffffffffffffffffff1673ffffffffffffffffffffffffffffffffffffffff16815260200190815260200160002060009054906101000a900460ff16905092915050565b60007f01ffc9a7000000000000000000000000000000000000000000000000000000007bffffffffffffffffffffffffffffffffffffffffffffffffffffffff1916827bffffffffffffffffffffffffffffffffffffffffffffffffffffffff1916149050919050565b60008073ffffffffffffffffffffffffffffffffffffffff166002600084815260200190815260200160002060009054906101000a900473ffffffffffffffffffffffffffffffffffffffff1673ffffffffffffffffffffffffffffffffffffffff1614159050919050565b600033905090565b816004600083815260200190815260200160002060006101000a81548173ffffffffffffffffffffffffffffffffffffffff021916908373ffffffffffffffffffffffffffffffffffffffff160217905550808273ffffffffffffffffffffffffffffffffffffffff16610bad83610698565b73ffffffffffffffffffffffffffffffffffffffff167f8c5be1e5ebec7d5bd14f71427d1e84f3dd0314c0f7b2291e5b200ac8c7c3b92560405160405180910390a45050565b6000610bfe82610ac6565b610c3d576040517f08c379a0000000000000000000000000000000000000000000000000000000008152600401610c3490611d78565b60405180910390fd5b6000610c4883610698565b90508073ffffffffffffffffffffffffffffffffffffffff168473ffffffffffffffffffffffffffffffffffffffff161480610cb757508373ffffffffffffffffffffffffffffffffffffffff16610c9f8461047b565b73ffffffffffffffffffffffffffffffffffffffff16145b80610cc85750610cc781856109c8565b5b91505092915050565b8273ffffffffffffffffffffffffffffffffffffffff16610cf182610698565b73ffffffffffffffffffffffffffffffffffffffff1614610d47576040517f08c379a0000000000000000000000000000000000000000000000000000000008152600401610d3e90611cf8565b60405180910390fd5b600073ffffffffffffffffffffffffffffffffffffffff168273ffffffffffffffffffffffffffffffffffffffff161415610db7576040517f08c379a0000000000000000000000000000000000000000000000000000000008152600401610dae90611d38565b60405180910390fd5b610dc283838361149f565b610dcd600082610b3a565b6001600360008573ffffffffffffffffffffffffffffffffffffffff1673ffffffffffffffffffffffffffffffffffffffff1681526020019081526020016000206000828254610e1d9190611fd3565b925050819055506001600360008473ffffffffffffffffffffffffffffffffffffffff1673ffffffffffffffffffffffffffffffffffffffff1681526020019081526020016000206000828254610e749190611f4c565b92505081905550816002600083815260200190815260200160002060006101000a81548173ffffffffffffffffffffffffffffffffffffffff021916908373ffffffffffffffffffffffffffffffffffffffff160217905550808273ffffffffffffffffffffffffffffffffffffffff168473ffffffffffffffffffffffffffffffffffffffff167fddf252ad1be2c89b69c2b068fc378daa952ba7f163c4a11628f55a4df523b3ef60405160405180910390a4610f338383836114a4565b505050565b8173ffffffffffffffffffffffffffffffffffffffff168373ffffffffffffffffffffffffffffffffffffffff161415610fa7576040517f08c379a0000000000000000000000000000000000000000000000000000000008152600401610f9e90611d58565b60405180910390fd5b80600560008573ffffffffffffffffffffffffffffffffffffffff1673ffffffffffffffffffffffffffffffffffffffff16815260200190815260200160002060008473ffffffffffffffffffffffffffffffffffffffff1673ffffffffffffffffffffffffffffffffffffffff16815260200190815260200160002060006101000a81548160ff0219169083151502179055508173ffffffffffffffffffffffffffffffffffffffff168373ffffffffffffffffffffffffffffffffffffffff167f17307eab39ab6107e8899845ad3d59bd9653f200f220920489ca2b5937696c31836040516110989190611c9b565b60405180910390a3505050565b6110b0848484610cd1565b6110bc848484846114a9565b6110fb576040517f08c379a00000000000000000000000000000000000000000000000000000000081526004016110f290611cd8565b60405180910390fd5b50505050565b600073ffffffffffffffffffffffffffffffffffffffff168273ffffffffffffffffffffffffffffffffffffffff161415611171576040517f08c379a000000000000000000000000000000000000000000000000000000000815260040161116890611df8565b60405180910390fd5b61117a81610ac6565b156111ba576040517f08c379a00000000000000000000000000000000000000000000000000000000081526004016111b190611d18565b60405180910390fd5b6111c66000838361149f565b6001600360008473ffffffffffffffffffffffffffffffffffffffff1673ffffffffffffffffffffffffffffffffffffffff16815260200190815260200160002060008282546112169190611f4c565b92505081905550816002600083815260200190815260200160002060006101000a81548173ffffffffffffffffffffffffffffffffffffffff021916908373ffffffffffffffffffffffffffffffffffffffff160217905550808273ffffffffffffffffffffffffffffffffffffffff16600073ffffffffffffffffffffffffffffffffffffffff167fddf252ad1be2c89b69c2b068fc378daa952ba7f163c4a11628f55a4df523b3ef60405160405180910390a46112d7600083836114a4565b5050565b606060405180602001604052806000815250905090565b6060600082141561133a576040518060400160405280600181526020017f3000000000000000000000000000000000000000000000000000000000000000815250905061149a565b600082905060005b6000821461136c57808061135590612120565b915050600a826113659190611fa2565b9150611342565b60008167ffffffffffffffff8111156113ae577f4e487b7100000000000000000000000000000000000000000000000000000000600052604160045260246000fd5b6040519080825280601f01601f1916602001820160405280156113e05781602001600182028036833780820191505090505b5090505b60008514611493576001826113f99190611fd3565b9150600a856114089190612169565b60306114149190611f4c565b60f81b818381518110611450577f4e487b7100000000000000000000000000000000000000000000000000000000600052603260045260246000fd5b60200101907effffffffffffffffffffffffffffffffffffffffffffffffffffffffffffff1916908160001a905350600a8561148c9190611fa2565b94506113e4565b8093505050505b919050565b505050565b505050565b60006114ca8473ffffffffffffffffffffffffffffffffffffffff16611640565b15611633578373ffffffffffffffffffffffffffffffffffffffff1663150b7a026114f3610b32565b8786866040518563ffffffff1660e01b81526004016115159493929190611c4f565b602060405180830381600087803b15801561152f57600080fd5b505af192505050801561156057506040513d601f19601f8201168201806040525081019061155d9190611904565b60015b6115e3573d8060008114611590576040519150601f19603f3d011682016040523d82523d6000602084013e611595565b606091505b506000815114156115db576040517f08c379a00000000000000000000000000000000000000000000000000000000081526004016115d290611cd8565b60405180910390fd5b805181602001fd5b63150b7a0260e01b7bffffffffffffffffffffffffffffffffffffffffffffffffffffffff1916817bffffffffffffffffffffffffffffffffffffffffffffffffffffffff191614915050611638565b600190505b949350505050565b6000808273ffffffffffffffffffffffffffffffffffffffff163b119050919050565b600061167661167184611ed8565b611eb3565b90508281526020810184848401111561168e57600080fd5b61169984828561207b565b509392505050565b6000813590506116b081612647565b92915050565b6000813590506116c58161265e565b92915050565b6000813590506116da81612675565b92915050565b6000815190506116ef81612675565b92915050565b600082601f83011261170657600080fd5b8135611716848260208601611663565b91505092915050565b60008135905061172e8161268c565b92915050565b60006020828403121561174657600080fd5b6000611754848285016116a1565b91505092915050565b6000806040838503121561177057600080fd5b600061177e858286016116a1565b925050602061178f858286016116a1565b9150509250929050565b6000806000606084860312156117ae57600080fd5b60006117bc868287016116a1565b93505060206117cd868287016116a1565b92505060406117de8682870161171f565b9150509250925092565b600080600080608085870312156117fe57600080fd5b600061180c878288016116a1565b945050602061181d878288016116a1565b935050604061182e8782880161171f565b925050606085013567ffffffffffffffff81111561184b57600080fd5b611857878288016116f5565b91505092959194509250565b6000806040838503121561187657600080fd5b6000611884858286016116a1565b9250506020611895858286016116b6565b9150509250929050565b600080604083850312156118b257600080fd5b60006118c0858286016116a1565b92505060206118d18582860161171f565b9150509250929050565b6000602082840312156118ed57600080fd5b60006118fb848285016116cb565b91505092915050565b60006020828403121561191657600080fd5b6000611924848285016116e0565b91505092915050565b60006020828403121561193f57600080fd5b600061194d8482850161171f565b91505092915050565b61195f81612007565b82525050565b61196e81612019565b82525050565b600061197f82611f09565b6119898185611f1f565b935061199981856020860161208a565b6119a281612256565b840191505092915050565b60006119b882611f14565b6119c28185611f30565b93506119d281856020860161208a565b6119db81612256565b840191505092915050565b60006119f182611f14565b6119fb8185611f41565b9350611a0b81856020860161208a565b80840191505092915050565b6000611a24603283611f30565b9150611a2f82612267565b604082019050919050565b6000611a47602583611f30565b9150611a52826122b6565b604082019050919050565b6000611a6a601c83611f30565b9150611a7582612305565b602082019050919050565b6000611a8d602483611f30565b9150611a988261232e565b604082019050919050565b6000611ab0601983611f30565b9150611abb8261237d565b602082019050919050565b6000611ad3602c83611f30565b9150611ade826123a6565b604082019050919050565b6000611af6603883611f30565b9150611b01826123f5565b604082019050919050565b6000611b19602a83611f30565b9150611b2482612444565b604082019050919050565b6000611b3c602983611f30565b9150611b4782612493565b604082019050919050565b6000611b5f602083611f30565b9150611b6a826124e2565b602082019050919050565b6000611b82602c83611f30565b9150611b8d8261250b565b604082019050919050565b6000611ba5602f83611f30565b9150611bb08261255a565b604082019050919050565b6000611bc8602183611f30565b9150611bd3826125a9565b604082019050919050565b6000611beb603183611f30565b9150611bf6826125f8565b604082019050919050565b611c0a81612071565b82525050565b6000611c1c82856119e6565b9150611c2882846119e6565b91508190509392505050565b6000602082019050611c496000830184611956565b92915050565b6000608082019050611c646000830187611956565b611c716020830186611956565b611c7e6040830185611c01565b8181036060830152611c908184611974565b905095945050505050565b6000602082019050611cb06000830184611965565b92915050565b60006020820190508181036000830152611cd081846119ad565b905092915050565b60006020820190508181036000830152611cf181611a17565b9050919050565b60006020820190508181036000830152611d1181611a3a565b9050919050565b60006020820190508181036000830152611d3181611a5d565b9050919050565b60006020820190508181036000830152611d5181611a80565b9050919050565b60006020820190508181036000830152611d7181611aa3565b9050919050565b60006020820190508181036000830152611d9181611ac6565b9050919050565b60006020820190508181036000830152611db181611ae9565b9050919050565b60006020820190508181036000830152611dd181611b0c565b9050919050565b60006020820190508181036000830152611df181611b2f565b9050919050565b60006020820190508181036000830152611e1181611b52565b9050919050565b60006020820190508181036000830152611e3181611b75565b9050919050565b60006020820190508181036000830152611e5181611b98565b9050919050565b60006020820190508181036000830152611e7181611bbb565b9050919050565b60006020820190508181036000830152611e9181611bde565b9050919050565b6000602082019050611ead6000830184611c01565b92915050565b6000611ebd611ece565b9050611ec982826120ef565b919050565b6000604051905090565b600067ffffffffffffffff821115611ef357611ef2612227565b5b611efc82612256565b9050602081019050919050565b600081519050919050565b600081519050919050565b600082825260208201905092915050565b600082825260208201905092915050565b600081905092915050565b6000611f5782612071565b9150611f6283612071565b9250827fffffffffffffffffffffffffffffffffffffffffffffffffffffffffffffffff03821115611f9757611f9661219a565b5b828201905092915050565b6000611fad82612071565b9150611fb883612071565b925082611fc857611fc76121c9565b5b828204905092915050565b6000611fde82612071565b9150611fe983612071565b925082821015611ffc57611ffb61219a565b5b828203905092915050565b600061201282612051565b9050919050565b60008115159050919050565b60007fffffffff0000000000000000000000000000000000000000000000000000000082169050919050565b600073ffffffffffffffffffffffffffffffffffffffff82169050919050565b6000819050919050565b82818337600083830152505050565b60005b838110156120a857808201518184015260208101905061208d565b838111156120b7576000848401525b50505050565b600060028204905060018216806120d557607f821691505b602082108114156120e9576120e86121f8565b5b50919050565b6120f882612256565b810181811067ffffffffffffffff8211171561211757612116612227565b5b80604052505050565b600061212b82612071565b91507fffffffffffffffffffffffffffffffffffffffffffffffffffffffffffffffff82141561215e5761215d61219a565b5b600182019050919050565b600061217482612071565b915061217f83612071565b92508261218f5761218e6121c9565b5b828206905092915050565b7f4e487b7100000000000000000000000000000000000000000000000000000000600052601160045260246000fd5b7f4e487b7100000000000000000000000000000000000000000000000000000000600052601260045260246000fd5b7f4e487b7100000000000000000000000000000000000000000000000000000000600052602260045260246000fd5b7f4e487b7100000000000000000000000000000000000000000000000000000000600052604160045260246000fd5b6000601f19601f8301169050919050565b7f4552433732313a207472616e7366657220746f206e6f6e20455243373231526560008201527f63656976657220696d706c656d656e7465720000000000000000000000000000602082015250565b7f4552433732313a207472616e736665722066726f6d20696e636f72726563742060008201527f6f776e6572000000000000000000000000000000000000000000000000000000602082015250565b7f4552433732313a20746f6b656e20616c7265616479206d696e74656400000000600082015250565b7f4552433732313a207472616e7366657220746f20746865207a65726f2061646460008201527f7265737300000000000000000000000000000000000000000000000000000000602082015250565b7f4552433732313a20617070726f766520746f2063616c6c657200000000000000600082015250565b7f4552433732313a206f70657261746f7220717565727920666f72206e6f6e657860008201527f697374656e7420746f6b656e0000000000000000000000000000000000000000602082015250565b7f4552433732313a20617070726f76652063616c6c6572206973206e6f74206f7760008201527f6e6572206e6f7220617070726f76656420666f7220616c6c0000000000000000602082015250565b7f4552433732313a2062616c616e636520717565727920666f7220746865207a6560008201527f726f206164647265737300000000000000000000000000000000000000000000602082015250565b7f4552433732313a206f776e657220717565727920666f72206e6f6e657869737460008201527f656e7420746f6b656e0000000000000000000000000000000000000000000000602082015250565b7f4552433732313a206d696e7420746f20746865207a65726f2061646472657373600082015250565b7f4552433732313a20617070726f76656420717565727920666f72206e6f6e657860008201527f697374656e7420746f6b656e0000000000000000000000000000000000000000602082015250565b7f4552433732314d657461646174613a2055524920717565727920666f72206e6f60008201527f6e6578697374656e7420746f6b656e0000000000000000000000000000000000602082015250565b7f4552433732313a20617070726f76616c20746f2063757272656e74206f776e6560008201527f7200000000000000000000000000000000000000000000000000000000000000602082015250565b7f4552433732313a207472616e736665722063616c6c6572206973206e6f74206f60008201527f776e6572206e6f7220617070726f766564000000000000000000000000000000602082015250565b61265081612007565b811461265b57600080fd5b50565b61266781612019565b811461267257600080fd5b50565b61267e81612025565b811461268957600080fd5b50565b61269581612071565b81146126a057600080fd5b5056fea26469706673582212206d20e8f065e0875d6e5914a4898cd49c6fac874ace44e72ffba5287a9867ff8064736f6c63430008030033",
  "linkReferences": {},
  "deployedLinkReferences": {}
}