{
  "_format": "hh-sol-artifact-1",
  "contractName": "Gov",
  "sourceName": "contracts/Gov.sol",
  "abi": [
    {
      "inputs": [
        {
          "internalType": "address[]",
          "name": "_owners",
          "type": "address[]"
        },
        {
          "internalType": "uint256",
          "name": "_numConfirmationsRequired",
          "type": "uint256"
        }
      ],
      "stateMutability": "nonpayable",
      "type": "constructor"
    },
    {
      "inputs": [
        {
          "internalType": "uint256",
          "name": "_txIndex",
          "type": "uint256"
        }
      ],
      "name": "confirmTransaction",
      "outputs": [],
      "stateMutability": "nonpayable",
      "type": "function"
    },
    {
      "inputs": [
        {
          "internalType": "uint256",
          "name": "_txIndex",
          "type": "uint256"
        },
        {
          "internalType": "uint256",
          "name": "_amount",
          "type": "uint256"
        }
      ],
      "name": "executeTransaction",
      "outputs": [],
      "stateMutability": "nonpayable",
      "type": "function"
    },
    {
      "inputs": [],
      "name": "getBalance",
      "outputs": [
        {
          "internalType": "uint256",
          "name": "balance",
          "type": "uint256"
        }
      ],
      "stateMutability": "view",
      "type": "function"
    },
    {
      "inputs": [],
      "name": "getOwners",
      "outputs": [
        {
          "internalType": "address[]",
          "name": "",
          "type": "address[]"
        }
      ],
      "stateMutability": "view",
      "type": "function"
    },
    {
      "inputs": [
        {
          "internalType": "uint256",
          "name": "_txIndex",
          "type": "uint256"
        }
      ],
      "name": "getTransaction",
      "outputs": [
        {
          "internalType": "address",
          "name": "treasuryAddr",
          "type": "address"
        },
        {
          "internalType": "uint256",
          "name": "amount",
          "type": "uint256"
        },
        {
          "internalType": "bytes",
          "name": "data",
          "type": "bytes"
        },
        {
          "internalType": "bool",
          "name": "executed",
          "type": "bool"
        },
        {
          "internalType": "uint256",
          "name": "numConfirmations",
          "type": "uint256"
        }
      ],
      "stateMutability": "view",
      "type": "function"
    },
    {
      "inputs": [],
      "name": "getTransactionCount",
      "outputs": [
        {
          "internalType": "uint256",
          "name": "",
          "type": "uint256"
        }
      ],
      "stateMutability": "view",
      "type": "function"
    },
    {
      "inputs": [
        {
          "internalType": "uint256",
          "name": "",
          "type": "uint256"
        },
        {
          "internalType": "address",
          "name": "",
          "type": "address"
        }
      ],
      "name": "isConfirmed",
      "outputs": [
        {
          "internalType": "bool",
          "name": "",
          "type": "bool"
        }
      ],
      "stateMutability": "view",
      "type": "function"
    },
    {
      "inputs": [
        {
          "internalType": "address",
          "name": "",
          "type": "address"
        }
      ],
      "name": "isOwner",
      "outputs": [
        {
          "internalType": "bool",
          "name": "",
          "type": "bool"
        }
      ],
      "stateMutability": "view",
      "type": "function"
    },
    {
      "inputs": [],
      "name": "numConfirmationsRequired",
      "outputs": [
        {
          "internalType": "uint256",
          "name": "",
          "type": "uint256"
        }
      ],
      "stateMutability": "view",
      "type": "function"
    },
    {
      "inputs": [
        {
          "internalType": "uint256",
          "name": "",
          "type": "uint256"
        }
      ],
      "name": "owners",
      "outputs": [
        {
          "internalType": "address",
          "name": "",
          "type": "address"
        }
      ],
      "stateMutability": "view",
      "type": "function"
    },
    {
      "inputs": [
        {
          "internalType": "uint256",
          "name": "_txIndex",
          "type": "uint256"
        }
      ],
      "name": "revokeConfirmation",
      "outputs": [],
      "stateMutability": "nonpayable",
      "type": "function"
    },
    {
      "inputs": [
        {
          "internalType": "address",
          "name": "_treasuryAddr",
          "type": "address"
        },
        {
          "internalType": "uint256",
          "name": "_amount",
          "type": "uint256"
        },
        {
          "internalType": "bytes",
          "name": "_data",
          "type": "bytes"
        }
      ],
      "name": "submitTransaction",
      "outputs": [],
      "stateMutability": "nonpayable",
      "type": "function"
    },
    {
      "inputs": [
        {
          "internalType": "uint256",
          "name": "",
          "type": "uint256"
        }
      ],
      "name": "transactions",
      "outputs": [
        {
          "internalType": "address",
          "name": "treasuryAddr",
          "type": "address"
        },
        {
          "internalType": "uint256",
          "name": "amount",
          "type": "uint256"
        },
        {
          "internalType": "bytes",
          "name": "data",
          "type": "bytes"
        },
        {
          "internalType": "bool",
          "name": "executed",
          "type": "bool"
        },
        {
          "internalType": "uint256",
          "name": "numConfirmations",
          "type": "uint256"
        }
      ],
      "stateMutability": "view",
      "type": "function"
    },
    {
      "stateMutability": "payable",
      "type": "receive"
    }
  ],
  "bytecode": "0x60806040523480156200001157600080fd5b506040516200154738038062001547833981016040819052620000349162000278565b60008251116200007d5760405162461bcd60e51b815260206004820152600f60248201526e1bdddb995c9cc81c995c5d5a5c9959608a1b60448201526064015b60405180910390fd5b6000811180156200008f575081518111155b620000ee5760405162461bcd60e51b815260206004820152602860248201527f696e76616c6964206e756d626572206f6620726571756972656420636f6e6669604482015267726d6174696f6e7360c01b606482015260840162000074565b60005b8251811015620002505760008382815181106200011e57634e487b7160e01b600052603260045260246000fd5b6020026020010151905060006001600160a01b0316816001600160a01b031614156200017d5760405162461bcd60e51b815260206004820152600d60248201526c34b73b30b634b21037bbb732b960991b604482015260640162000074565b6001600160a01b03811660009081526001602052604090205460ff1615620001db5760405162461bcd60e51b815260206004820152601060248201526f6f776e6572206e6f7420756e6971756560801b604482015260640162000074565b6001600160a01b031660008181526001602081905260408220805460ff191682179055815490810182559080527f290decd9548b62a8d60345a988386fc84ba6bc95484008f6362f93160ef3e5630180546001600160a01b031916909117905580620002478162000354565b915050620000f1565b506002555062000392565b80516001600160a01b03811681146200027357600080fd5b919050565b600080604083850312156200028b578182fd5b82516001600160401b0380821115620002a2578384fd5b818501915085601f830112620002b6578384fd5b8151602082821115620002cd57620002cd6200037c565b8160051b604051601f19603f83011681018181108682111715620002f557620002f56200037c565b604052838152828101945085830182870184018b101562000314578889fd5b8896505b8487101562000341576200032c816200025b565b86526001969096019594830194830162000318565b5097909101519698969750505050505050565b60006000198214156200037557634e487b7160e01b81526011600452602481fd5b5060010190565b634e487b7160e01b600052604160045260246000fd5b6111a580620003a26000396000f3fe6080604052600436106100d65760003560e01c80633c5369381161007f578063a0e67e2b11610059578063a0e67e2b1461026c578063c01a8c841461028e578063c6427474146102ae578063d0549b85146102ce576100dd565b80633c536938146101f157806380f59a65146102115780639ace38c21461024c576100dd565b80632e7700f0116100b05780632e7700f01461016b5780632f54bf6e1461018057806333ea3dc8146101c0576100dd565b8063025e7c27146100e257806312065fe01461012c57806320ea8d8614610149576100dd565b366100dd57005b600080fd5b3480156100ee57600080fd5b506101026100fd366004610f6e565b6102e4565b60405173ffffffffffffffffffffffffffffffffffffffff90911681526020015b60405180910390f35b34801561013857600080fd5b50475b604051908152602001610123565b34801561015557600080fd5b50610169610164366004610f6e565b61031b565b005b34801561017757600080fd5b5060045461013b565b34801561018c57600080fd5b506101b061019b366004610e69565b60016020526000908152604090205460ff1681565b6040519015158152602001610123565b3480156101cc57600080fd5b506101e06101db366004610f6e565b610533565b604051610123959493929190610fd2565b3480156101fd57600080fd5b5061016961020c366004610fb1565b610649565b34801561021d57600080fd5b506101b061022c366004610f86565b600360209081526000928352604080842090915290825290205460ff1681565b34801561025857600080fd5b506101e0610267366004610f6e565b6108a3565b34801561027857600080fd5b50610281610989565b604051610123919061107f565b34801561029a57600080fd5b506101696102a9366004610f6e565b6109f8565b3480156102ba57600080fd5b506101696102c9366004610e8a565b610c14565b3480156102da57600080fd5b5061013b60025481565b600081815481106102f457600080fd5b60009182526020909120015473ffffffffffffffffffffffffffffffffffffffff16905081565b3360009081526001602052604090205460ff1661037f5760405162461bcd60e51b815260206004820152600960248201527f6e6f74206f776e6572000000000000000000000000000000000000000000000060448201526064015b60405180910390fd5b600454819081106103d25760405162461bcd60e51b815260206004820152601160248201527f747820646f6573206e6f742065786973740000000000000000000000000000006044820152606401610376565b81600481815481106103f457634e487b7160e01b600052603260045260246000fd5b600091825260209091206003600590920201015460ff16156104585760405162461bcd60e51b815260206004820152601360248201527f747820616c7265616479206578656375746564000000000000000000000000006044820152606401610376565b60006004848154811061047b57634e487b7160e01b600052603260045260246000fd5b600091825260208083208784526003825260408085203386529092529220546005909102909101915060ff166104f35760405162461bcd60e51b815260206004820152601060248201527f7478206e6f7420636f6e6669726d6564000000000000000000000000000000006044820152606401610376565b600181600401600082825461050891906110f1565b909155505050600092835250506003602090815260408083203384529091529020805460ff19169055565b600080606060008060006004878154811061055e57634e487b7160e01b600052603260045260246000fd5b60009182526020909120600590910201805460018201546003830154600484015460028501805495965073ffffffffffffffffffffffffffffffffffffffff9094169492939260ff9092169183906105b590611108565b80601f01602080910402602001604051908101604052809291908181526020018280546105e190611108565b801561062e5780601f106106035761010080835404028352916020019161062e565b820191906000526020600020905b81548152906001019060200180831161061157829003601f168201915b50505050509250955095509550955095505091939590929450565b3360009081526001602052604090205460ff166106a85760405162461bcd60e51b815260206004820152600960248201527f6e6f74206f776e657200000000000000000000000000000000000000000000006044820152606401610376565b600454829081106106fb5760405162461bcd60e51b815260206004820152601160248201527f747820646f6573206e6f742065786973740000000000000000000000000000006044820152606401610376565b826004818154811061071d57634e487b7160e01b600052603260045260246000fd5b600091825260209091206003600590920201015460ff16156107815760405162461bcd60e51b815260206004820152601360248201527f747820616c7265616479206578656375746564000000000000000000000000006044820152606401610376565b6000600485815481106107a457634e487b7160e01b600052603260045260246000fd5b906000526020600020906005020190506002548160040154101561080a5760405162461bcd60e51b815260206004820152601160248201527f63616e6e6f7420657865637574652074780000000000000000000000000000006044820152606401610376565b60038101805460ff1916600117905580546040517f2e1a7d4d0000000000000000000000000000000000000000000000000000000081526004810186905273ffffffffffffffffffffffffffffffffffffffff90911690632e1a7d4d90602401600060405180830381600087803b15801561088457600080fd5b505af1158015610898573d6000803e3d6000fd5b505050505050505050565b600481815481106108b357600080fd5b600091825260209091206005909102018054600182015460028301805473ffffffffffffffffffffffffffffffffffffffff90931694509092916108f690611108565b80601f016020809104026020016040519081016040528092919081815260200182805461092290611108565b801561096f5780601f106109445761010080835404028352916020019161096f565b820191906000526020600020905b81548152906001019060200180831161095257829003601f168201915b505050506003830154600490930154919260ff1691905085565b606060008054806020026020016040519081016040528092919081815260200182805480156109ee57602002820191906000526020600020905b815473ffffffffffffffffffffffffffffffffffffffff1681526001909101906020018083116109c3575b5050505050905090565b3360009081526001602052604090205460ff16610a575760405162461bcd60e51b815260206004820152600960248201527f6e6f74206f776e657200000000000000000000000000000000000000000000006044820152606401610376565b60045481908110610aaa5760405162461bcd60e51b815260206004820152601160248201527f747820646f6573206e6f742065786973740000000000000000000000000000006044820152606401610376565b8160048181548110610acc57634e487b7160e01b600052603260045260246000fd5b600091825260209091206003600590920201015460ff1615610b305760405162461bcd60e51b815260206004820152601360248201527f747820616c7265616479206578656375746564000000000000000000000000006044820152606401610376565b6000838152600360209081526040808320338452909152902054839060ff1615610b9c5760405162461bcd60e51b815260206004820152601460248201527f747820616c726561647920636f6e6669726d65640000000000000000000000006044820152606401610376565b600060048581548110610bbf57634e487b7160e01b600052603260045260246000fd5b906000526020600020906005020190506001816004016000828254610be491906110d9565b90915550505060009384525050600360209081526040808420338552909152909120805460ff1916600117905550565b3360009081526001602052604090205460ff16610c735760405162461bcd60e51b815260206004820152600960248201527f6e6f74206f776e657200000000000000000000000000000000000000000000006044820152606401610376565b600480546040805160a08101825273ffffffffffffffffffffffffffffffffffffffff87811682526020808301888152938301878152600060608501819052608085018190526001870188559690965282517f8a35acfbc15ff81a39ae7d344fd709f28e8600b4aa8c65c6b64bfe7fe36bd19b6005870290810180547fffffffffffffffffffffffff0000000000000000000000000000000000000000169290941691909117835593517f8a35acfbc15ff81a39ae7d344fd709f28e8600b4aa8c65c6b64bfe7fe36bd19c85015594518051949592949193610d7c937f8a35acfbc15ff81a39ae7d344fd709f28e8600b4aa8c65c6b64bfe7fe36bd19d90910192910190610da7565b50606082015160038201805460ff191691151591909117905560809091015160049091015550505050565b828054610db390611108565b90600052602060002090601f016020900481019282610dd55760008555610e1b565b82601f10610dee57805160ff1916838001178555610e1b565b82800160010185558215610e1b579182015b82811115610e1b578251825591602001919060010190610e00565b50610e27929150610e2b565b5090565b5b80821115610e275760008155600101610e2c565b803573ffffffffffffffffffffffffffffffffffffffff81168114610e6457600080fd5b919050565b600060208284031215610e7a578081fd5b610e8382610e40565b9392505050565b600080600060608486031215610e9e578182fd5b610ea784610e40565b925060208401359150604084013567ffffffffffffffff80821115610eca578283fd5b818601915086601f830112610edd578283fd5b813581811115610eef57610eef611159565b604051601f82017fffffffffffffffffffffffffffffffffffffffffffffffffffffffffffffffe0908116603f01168101908382118183101715610f3557610f35611159565b81604052828152896020848701011115610f4d578586fd5b82602086016020830137856020848301015280955050505050509250925092565b600060208284031215610f7f578081fd5b5035919050565b60008060408385031215610f98578182fd5b82359150610fa860208401610e40565b90509250929050565b60008060408385031215610fc3578182fd5b50508035926020909101359150565b600073ffffffffffffffffffffffffffffffffffffffff871682526020868184015260a0604084015285518060a0850152825b818110156110215787810183015185820160c001528201611005565b81811115611032578360c083870101525b50601f017fffffffffffffffffffffffffffffffffffffffffffffffffffffffffffffffe016830160c001915061106f9050606083018515159052565b8260808301529695505050505050565b6020808252825182820181905260009190848201906040850190845b818110156110cd57835173ffffffffffffffffffffffffffffffffffffffff168352928401929184019160010161109b565b50909695505050505050565b600082198211156110ec576110ec611143565b500190565b60008282101561110357611103611143565b500390565b600181811c9082168061111c57607f821691505b6020821081141561113d57634e487b7160e01b600052602260045260246000fd5b50919050565b634e487b7160e01b600052601160045260246000fd5b634e487b7160e01b600052604160045260246000fdfea26469706673582212200d16db776e467a48d0733be43d940b8a04200624bf0987ea107d6255e3842cc864736f6c63430008030033",
  "linkReferences": {},
  "deployedLinkReferences": {}
}