{
  "_format": "hh-sol-artifact-1",
  "contractName": "ABCToken",
  "sourceName": "contracts/ABCToken.sol",
  "abi": [
    {
      "inputs": [],
      "stateMutability": "nonpayable",
      "type": "constructor"
    },
    {
      "anonymous": false,
      "inputs": [
        {
          "indexed": true,
          "internalType": "address",
          "name": "owner",
          "type": "address"
        },
        {
          "indexed": true,
          "internalType": "address",
          "name": "spender",
          "type": "address"
        },
        {
          "indexed": false,
          "internalType": "uint256",
          "name": "value",
          "type": "uint256"
        }
      ],
      "name": "Approval",
      "type": "event"
    },
    {
      "anonymous": false,
      "inputs": [
        {
          "indexed": true,
          "internalType": "address",
          "name": "from",
          "type": "address"
        },
        {
          "indexed": true,
          "internalType": "address",
          "name": "to",
          "type": "address"
        },
        {
          "indexed": false,
          "internalType": "uint256",
          "name": "value",
          "type": "uint256"
        }
      ],
      "name": "Transfer",
      "type": "event"
    },
    {
      "inputs": [
        {
          "internalType": "address",
          "name": "owner",
          "type": "address"
        },
        {
          "internalType": "address",
          "name": "spender",
          "type": "address"
        }
      ],
      "name": "allowance",
      "outputs": [
        {
          "internalType": "uint256",
          "name": "",
          "type": "uint256"
        }
      ],
      "stateMutability": "view",
      "type": "function"
    },
    {
      "inputs": [
        {
          "internalType": "address",
          "name": "spender",
          "type": "address"
        },
        {
          "internalType": "uint256",
          "name": "amount",
          "type": "uint256"
        }
      ],
      "name": "approve",
      "outputs": [
        {
          "internalType": "bool",
          "name": "",
          "type": "bool"
        }
      ],
      "stateMutability": "nonpayable",
      "type": "function"
    },
    {
      "inputs": [
        {
          "internalType": "address",
          "name": "account",
          "type": "address"
        }
      ],
      "name": "balanceOf",
      "outputs": [
        {
          "internalType": "uint256",
          "name": "",
          "type": "uint256"
        }
      ],
      "stateMutability": "view",
      "type": "function"
    },
    {
      "inputs": [],
      "name": "decimals",
      "outputs": [
        {
          "internalType": "uint8",
          "name": "",
          "type": "uint8"
        }
      ],
      "stateMutability": "view",
      "type": "function"
    },
    {
      "inputs": [
        {
          "internalType": "address",
          "name": "spender",
          "type": "address"
        },
        {
          "internalType": "uint256",
          "name": "subtractedValue",
          "type": "uint256"
        }
      ],
      "name": "decreaseAllowance",
      "outputs": [
        {
          "internalType": "bool",
          "name": "",
          "type": "bool"
        }
      ],
      "stateMutability": "nonpayable",
      "type": "function"
    },
    {
      "inputs": [
        {
          "internalType": "address",
          "name": "_to",
          "type": "address"
        },
        {
          "internalType": "uint256",
          "name": "_amount",
          "type": "uint256"
        }
      ],
      "name": "deposite",
      "outputs": [],
      "stateMutability": "nonpayable",
      "type": "function"
    },
    {
      "inputs": [
        {
          "internalType": "address",
          "name": "spender",
          "type": "address"
        },
        {
          "internalType": "uint256",
          "name": "addedValue",
          "type": "uint256"
        }
      ],
      "name": "increaseAllowance",
      "outputs": [
        {
          "internalType": "bool",
          "name": "",
          "type": "bool"
        }
      ],
      "stateMutability": "nonpayable",
      "type": "function"
    },
    {
      "inputs": [],
      "name": "name",
      "outputs": [
        {
          "internalType": "string",
          "name": "",
          "type": "string"
        }
      ],
      "stateMutability": "view",
      "type": "function"
    },
    {
      "inputs": [],
      "name": "owner",
      "outputs": [
        {
          "internalType": "address",
          "name": "",
          "type": "address"
        }
      ],
      "stateMutability": "view",
      "type": "function"
    },
    {
      "inputs": [],
      "name": "symbol",
      "outputs": [
        {
          "internalType": "string",
          "name": "",
          "type": "string"
        }
      ],
      "stateMutability": "view",
      "type": "function"
    },
    {
      "inputs": [],
      "name": "totalSupply",
      "outputs": [
        {
          "internalType": "uint256",
          "name": "",
          "type": "uint256"
        }
      ],
      "stateMutability": "view",
      "type": "function"
    },
    {
      "inputs": [
        {
          "internalType": "address",
          "name": "to",
          "type": "address"
        },
        {
          "internalType": "uint256",
          "name": "amount",
          "type": "uint256"
        }
      ],
      "name": "transfer",
      "outputs": [
        {
          "internalType": "bool",
          "name": "",
          "type": "bool"
        }
      ],
      "stateMutability": "nonpayable",
      "type": "function"
    },
    {
      "inputs": [
        {
          "internalType": "address",
          "name": "from",
          "type": "address"
        },
        {
          "internalType": "address",
          "name": "to",
          "type": "address"
        },
        {
          "internalType": "uint256",
          "name": "amount",
          "type": "uint256"
        }
      ],
      "name": "transferFrom",
      "outputs": [
        {
          "internalType": "bool",
          "name": "",
          "type": "bool"
        }
      ],
      "stateMutability": "nonpayable",
      "type": "function"
    }
  ],
  "bytecode": "0x60a06040523480156200001157600080fd5b506040518060400160405280600881526020017f414243546f6b656e0000000000000000000000000000000000000000000000008152506040518060400160405280600381526020017f4142430000000000000000000000000000000000000000000000000000000000815250816003908051906020019062000096929190620000ef565b508060049080519060200190620000af929190620000ef565b5050503373ffffffffffffffffffffffffffffffffffffffff1660808173ffffffffffffffffffffffffffffffffffffffff1660601b8152505062000204565b828054620000fd906200019f565b90600052602060002090601f0160209004810192826200012157600085556200016d565b82601f106200013c57805160ff19168380011785556200016d565b828001600101855582156200016d579182015b828111156200016c5782518255916020019190600101906200014f565b5b5090506200017c919062000180565b5090565b5b808211156200019b57600081600090555060010162000181565b5090565b60006002820490506001821680620001b857607f821691505b60208210811415620001cf57620001ce620001d5565b5b50919050565b7f4e487b7100000000000000000000000000000000000000000000000000000000600052602260045260246000fd5b60805160601c6115c16200022360003960006104cf01526115c16000f3fe608060405234801561001057600080fd5b50600436106100cf5760003560e01c806370a082311161008c57806395d89b411161006657806395d89b4114610228578063a457c2d714610246578063a9059cbb14610276578063dd62ed3e146102a6576100cf565b806370a08231146101be578063880cfc2f146101ee5780638da5cb5b1461020a576100cf565b806306fdde03146100d4578063095ea7b3146100f257806318160ddd1461012257806323b872dd14610140578063313ce56714610170578063395093511461018e575b600080fd5b6100dc6102d6565b6040516100e9919061103e565b60405180910390f35b61010c60048036038101906101079190610e3f565b610368565b6040516101199190611023565b60405180910390f35b61012a61038b565b6040516101379190611160565b60405180910390f35b61015a60048036038101906101559190610df0565b610395565b6040516101679190611023565b60405180910390f35b6101786103c4565b604051610185919061117b565b60405180910390f35b6101a860048036038101906101a39190610e3f565b6103cd565b6040516101b59190611023565b60405180910390f35b6101d860048036038101906101d39190610d8b565b610477565b6040516101e59190611160565b60405180910390f35b61020860048036038101906102039190610e3f565b6104bf565b005b6102126104cd565b60405161021f9190611008565b60405180910390f35b6102306104f1565b60405161023d919061103e565b60405180910390f35b610260600480360381019061025b9190610e3f565b610583565b60405161026d9190611023565b60405180910390f35b610290600480360381019061028b9190610e3f565b61066d565b60405161029d9190611023565b60405180910390f35b6102c060048036038101906102bb9190610db4565b610690565b6040516102cd9190611160565b60405180910390f35b6060600380546102e590611290565b80601f016020809104026020016040519081016040528092919081815260200182805461031190611290565b801561035e5780601f106103335761010080835404028352916020019161035e565b820191906000526020600020905b81548152906001019060200180831161034157829003601f168201915b5050505050905090565b600080610373610717565b905061038081858561071f565b600191505092915050565b6000600254905090565b6000806103a0610717565b90506103ad8582856108ea565b6103b8858585610976565b60019150509392505050565b60006012905090565b6000806103d8610717565b905061046c818585600160008673ffffffffffffffffffffffffffffffffffffffff1673ffffffffffffffffffffffffffffffffffffffff16815260200190815260200160002060008973ffffffffffffffffffffffffffffffffffffffff1673ffffffffffffffffffffffffffffffffffffffff1681526020019081526020016000205461046791906111b2565b61071f565b600191505092915050565b60008060008373ffffffffffffffffffffffffffffffffffffffff1673ffffffffffffffffffffffffffffffffffffffff168152602001908152602001600020549050919050565b6104c98282610bf7565b5050565b7f000000000000000000000000000000000000000000000000000000000000000081565b60606004805461050090611290565b80601f016020809104026020016040519081016040528092919081815260200182805461052c90611290565b80156105795780601f1061054e57610100808354040283529160200191610579565b820191906000526020600020905b81548152906001019060200180831161055c57829003601f168201915b5050505050905090565b60008061058e610717565b90506000600160008373ffffffffffffffffffffffffffffffffffffffff1673ffffffffffffffffffffffffffffffffffffffff16815260200190815260200160002060008673ffffffffffffffffffffffffffffffffffffffff1673ffffffffffffffffffffffffffffffffffffffff16815260200190815260200160002054905083811015610654576040517f08c379a000000000000000000000000000000000000000000000000000000000815260040161064b90611120565b60405180910390fd5b610661828686840361071f565b60019250505092915050565b600080610678610717565b9050610685818585610976565b600191505092915050565b6000600160008473ffffffffffffffffffffffffffffffffffffffff1673ffffffffffffffffffffffffffffffffffffffff16815260200190815260200160002060008373ffffffffffffffffffffffffffffffffffffffff1673ffffffffffffffffffffffffffffffffffffffff16815260200190815260200160002054905092915050565b600033905090565b600073ffffffffffffffffffffffffffffffffffffffff168373ffffffffffffffffffffffffffffffffffffffff16141561078f576040517f08c379a000000000000000000000000000000000000000000000000000000000815260040161078690611100565b60405180910390fd5b600073ffffffffffffffffffffffffffffffffffffffff168273ffffffffffffffffffffffffffffffffffffffff1614156107ff576040517f08c379a00000000000000000000000000000000000000000000000000000000081526004016107f690611080565b60405180910390fd5b80600160008573ffffffffffffffffffffffffffffffffffffffff1673ffffffffffffffffffffffffffffffffffffffff16815260200190815260200160002060008473ffffffffffffffffffffffffffffffffffffffff1673ffffffffffffffffffffffffffffffffffffffff168152602001908152602001600020819055508173ffffffffffffffffffffffffffffffffffffffff168373ffffffffffffffffffffffffffffffffffffffff167f8c5be1e5ebec7d5bd14f71427d1e84f3dd0314c0f7b2291e5b200ac8c7c3b925836040516108dd9190611160565b60405180910390a3505050565b60006108f68484610690565b90507fffffffffffffffffffffffffffffffffffffffffffffffffffffffffffffffff81146109705781811015610962576040517f08c379a0000000000000000000000000000000000000000000000000000000008152600401610959906110a0565b60405180910390fd5b61096f848484840361071f565b5b50505050565b600073ffffffffffffffffffffffffffffffffffffffff168373ffffffffffffffffffffffffffffffffffffffff1614156109e6576040517f08c379a00000000000000000000000000000000000000000000000000000000081526004016109dd906110e0565b60405180910390fd5b600073ffffffffffffffffffffffffffffffffffffffff168273ffffffffffffffffffffffffffffffffffffffff161415610a56576040517f08c379a0000000000000000000000000000000000000000000000000000000008152600401610a4d90611060565b60405180910390fd5b610a61838383610d57565b60008060008573ffffffffffffffffffffffffffffffffffffffff1673ffffffffffffffffffffffffffffffffffffffff16815260200190815260200160002054905081811015610ae7576040517f08c379a0000000000000000000000000000000000000000000000000000000008152600401610ade906110c0565b60405180910390fd5b8181036000808673ffffffffffffffffffffffffffffffffffffffff1673ffffffffffffffffffffffffffffffffffffffff16815260200190815260200160002081905550816000808573ffffffffffffffffffffffffffffffffffffffff1673ffffffffffffffffffffffffffffffffffffffff1681526020019081526020016000206000828254610b7a91906111b2565b925050819055508273ffffffffffffffffffffffffffffffffffffffff168473ffffffffffffffffffffffffffffffffffffffff167fddf252ad1be2c89b69c2b068fc378daa952ba7f163c4a11628f55a4df523b3ef84604051610bde9190611160565b60405180910390a3610bf1848484610d5c565b50505050565b600073ffffffffffffffffffffffffffffffffffffffff168273ffffffffffffffffffffffffffffffffffffffff161415610c67576040517f08c379a0000000000000000000000000000000000000000000000000000000008152600401610c5e90611140565b60405180910390fd5b610c7360008383610d57565b8060026000828254610c8591906111b2565b92505081905550806000808473ffffffffffffffffffffffffffffffffffffffff1673ffffffffffffffffffffffffffffffffffffffff1681526020019081526020016000206000828254610cda91906111b2565b925050819055508173ffffffffffffffffffffffffffffffffffffffff16600073ffffffffffffffffffffffffffffffffffffffff167fddf252ad1be2c89b69c2b068fc378daa952ba7f163c4a11628f55a4df523b3ef83604051610d3f9190611160565b60405180910390a3610d5360008383610d5c565b5050565b505050565b505050565b600081359050610d708161155d565b92915050565b600081359050610d8581611574565b92915050565b600060208284031215610d9d57600080fd5b6000610dab84828501610d61565b91505092915050565b60008060408385031215610dc757600080fd5b6000610dd585828601610d61565b9250506020610de685828601610d61565b9150509250929050565b600080600060608486031215610e0557600080fd5b6000610e1386828701610d61565b9350506020610e2486828701610d61565b9250506040610e3586828701610d76565b9150509250925092565b60008060408385031215610e5257600080fd5b6000610e6085828601610d61565b9250506020610e7185828601610d76565b9150509250929050565b610e8481611208565b82525050565b610e938161121a565b82525050565b6000610ea482611196565b610eae81856111a1565b9350610ebe81856020860161125d565b610ec781611320565b840191505092915050565b6000610edf6023836111a1565b9150610eea82611331565b604082019050919050565b6000610f026022836111a1565b9150610f0d82611380565b604082019050919050565b6000610f25601d836111a1565b9150610f30826113cf565b602082019050919050565b6000610f486026836111a1565b9150610f53826113f8565b604082019050919050565b6000610f6b6025836111a1565b9150610f7682611447565b604082019050919050565b6000610f8e6024836111a1565b9150610f9982611496565b604082019050919050565b6000610fb16025836111a1565b9150610fbc826114e5565b604082019050919050565b6000610fd4601f836111a1565b9150610fdf82611534565b602082019050919050565b610ff381611246565b82525050565b61100281611250565b82525050565b600060208201905061101d6000830184610e7b565b92915050565b60006020820190506110386000830184610e8a565b92915050565b600060208201905081810360008301526110588184610e99565b905092915050565b6000602082019050818103600083015261107981610ed2565b9050919050565b6000602082019050818103600083015261109981610ef5565b9050919050565b600060208201905081810360008301526110b981610f18565b9050919050565b600060208201905081810360008301526110d981610f3b565b9050919050565b600060208201905081810360008301526110f981610f5e565b9050919050565b6000602082019050818103600083015261111981610f81565b9050919050565b6000602082019050818103600083015261113981610fa4565b9050919050565b6000602082019050818103600083015261115981610fc7565b9050919050565b60006020820190506111756000830184610fea565b92915050565b60006020820190506111906000830184610ff9565b92915050565b600081519050919050565b600082825260208201905092915050565b60006111bd82611246565b91506111c883611246565b9250827fffffffffffffffffffffffffffffffffffffffffffffffffffffffffffffffff038211156111fd576111fc6112c2565b5b828201905092915050565b600061121382611226565b9050919050565b60008115159050919050565b600073ffffffffffffffffffffffffffffffffffffffff82169050919050565b6000819050919050565b600060ff82169050919050565b60005b8381101561127b578082015181840152602081019050611260565b8381111561128a576000848401525b50505050565b600060028204905060018216806112a857607f821691505b602082108114156112bc576112bb6112f1565b5b50919050565b7f4e487b7100000000000000000000000000000000000000000000000000000000600052601160045260246000fd5b7f4e487b7100000000000000000000000000000000000000000000000000000000600052602260045260246000fd5b6000601f19601f8301169050919050565b7f45524332303a207472616e7366657220746f20746865207a65726f206164647260008201527f6573730000000000000000000000000000000000000000000000000000000000602082015250565b7f45524332303a20617070726f766520746f20746865207a65726f20616464726560008201527f7373000000000000000000000000000000000000000000000000000000000000602082015250565b7f45524332303a20696e73756666696369656e7420616c6c6f77616e6365000000600082015250565b7f45524332303a207472616e7366657220616d6f756e742065786365656473206260008201527f616c616e63650000000000000000000000000000000000000000000000000000602082015250565b7f45524332303a207472616e736665722066726f6d20746865207a65726f20616460008201527f6472657373000000000000000000000000000000000000000000000000000000602082015250565b7f45524332303a20617070726f76652066726f6d20746865207a65726f2061646460008201527f7265737300000000000000000000000000000000000000000000000000000000602082015250565b7f45524332303a2064656372656173656420616c6c6f77616e63652062656c6f7760008201527f207a65726f000000000000000000000000000000000000000000000000000000602082015250565b7f45524332303a206d696e7420746f20746865207a65726f206164647265737300600082015250565b61156681611208565b811461157157600080fd5b50565b61157d81611246565b811461158857600080fd5b5056fea2646970667358221220788dc185be72b0ccbc78dd9b4c1c2042738fb1eaadbf52e2253cb4bc7b1048f364736f6c63430008030033",
  "linkReferences": {},
  "deployedLinkReferences": {}
}